{
  "_format": "hh-sol-artifact-1",
  "contractName": "CollateralManager",
  "sourceName": "contracts/CollateralManager.sol",
  "abi": [
    {
      "inputs": [
        {
          "internalType": "address",
          "name": "_reserveConfig",
          "type": "address"
        },
        {
          "internalType": "address",
          "name": "_oracle",
          "type": "address"
        }
      ],
      "stateMutability": "nonpayable",
      "type": "constructor"
    },
    {
      "inputs": [
        {
          "internalType": "address",
          "name": "user",
          "type": "address"
        },
        {
          "internalType": "address",
          "name": "collateralAsset",
          "type": "address"
        },
        {
          "internalType": "uint256",
          "name": "collateralAmount",
          "type": "uint256"
        },
        {
          "internalType": "address",
          "name": "debtAsset",
          "type": "address"
        },
        {
          "internalType": "uint256",
          "name": "debtAmount",
          "type": "uint256"
        }
      ],
      "name": "isHealthy",
      "outputs": [
        {
          "internalType": "bool",
          "name": "",
          "type": "bool"
        }
      ],
      "stateMutability": "view",
      "type": "function"
    },
    {
      "inputs": [
        {
          "internalType": "address",
          "name": "user",
          "type": "address"
        },
        {
          "internalType": "address",
          "name": "collateralAsset",
          "type": "address"
        },
        {
          "internalType": "uint256",
          "name": "collateralAmount",
          "type": "uint256"
        },
        {
          "internalType": "address",
          "name": "debtAsset",
          "type": "address"
        },
        {
          "internalType": "uint256",
          "name": "debtAmount",
          "type": "uint256"
        }
      ],
      "name": "isLiquidatable",
      "outputs": [
        {
          "internalType": "bool",
          "name": "",
          "type": "bool"
        }
      ],
      "stateMutability": "view",
      "type": "function"
    },
    {
      "inputs": [],
      "name": "oracle",
      "outputs": [
        {
          "internalType": "contract PriceOracle",
          "name": "",
          "type": "address"
        }
      ],
      "stateMutability": "view",
      "type": "function"
    },
    {
      "inputs": [],
      "name": "reserveConfig",
      "outputs": [
        {
          "internalType": "contract ReserveConfiguration",
          "name": "",
          "type": "address"
        }
      ],
      "stateMutability": "view",
      "type": "function"
    }
  ],
  "bytecode": "0x608060405234801561001057600080fd5b5060405161100f38038061100f833981810160405281019061003291906101fb565b600073ffffffffffffffffffffffffffffffffffffffff168273ffffffffffffffffffffffffffffffffffffffff16036100a1576040517f08c379a000000000000000000000000000000000000000000000000000000000815260040161009890610298565b60405180910390fd5b600073ffffffffffffffffffffffffffffffffffffffff168173ffffffffffffffffffffffffffffffffffffffff1603610110576040517f08c379a000000000000000000000000000000000000000000000000000000000815260040161010790610304565b60405180910390fd5b816000806101000a81548173ffffffffffffffffffffffffffffffffffffffff021916908373ffffffffffffffffffffffffffffffffffffffff16021790555080600160006101000a81548173ffffffffffffffffffffffffffffffffffffffff021916908373ffffffffffffffffffffffffffffffffffffffff1602179055505050610324565b600080fd5b600073ffffffffffffffffffffffffffffffffffffffff82169050919050565b60006101c88261019d565b9050919050565b6101d8816101bd565b81146101e357600080fd5b50565b6000815190506101f5816101cf565b92915050565b6000806040838503121561021257610211610198565b5b6000610220858286016101e6565b9250506020610231858286016101e6565b9150509250929050565b600082825260208201905092915050565b7f496e76616c6964207265736572766520636f6e66696720616464726573730000600082015250565b6000610282601e8361023b565b915061028d8261024c565b602082019050919050565b600060208201905081810360008301526102b181610275565b9050919050565b7f496e76616c6964206f7261636c65206164647265737300000000000000000000600082015250565b60006102ee60168361023b565b91506102f9826102b8565b602082019050919050565b6000602082019050818103600083015261031d816102e1565b9050919050565b610cdc806103336000396000f3fe608060405234801561001057600080fd5b506004361061004c5760003560e01c80631e3ddf58146100515780633a8f6bf2146100815780637dc0d1d0146100b1578063e57d99d7146100cf575b600080fd5b61006b600480360381019061006691906107b7565b6100ed565b604051610078919061084d565b60405180910390f35b61009b600480360381019061009691906107b7565b6103db565b6040516100a8919061084d565b60405180910390f35b6100b96106ca565b6040516100c691906108c7565b60405180910390f35b6100d76106f0565b6040516100e49190610903565b60405180910390f35b600080600160009054906101000a900473ffffffffffffffffffffffffffffffffffffffff1673ffffffffffffffffffffffffffffffffffffffff166341976e09876040518263ffffffff1660e01b815260040161014b919061092d565b602060405180830381865afa158015610168573d6000803e3d6000fd5b505050506040513d601f19601f8201168201806040525081019061018c919061095d565b90506000600160009054906101000a900473ffffffffffffffffffffffffffffffffffffffff1673ffffffffffffffffffffffffffffffffffffffff166341976e09866040518263ffffffff1660e01b81526004016101eb919061092d565b602060405180830381865afa158015610208573d6000803e3d6000fd5b505050506040513d601f19601f8201168201806040525081019061022c919061095d565b905060008211801561023e5750600081115b61027d576040517f08c379a0000000000000000000000000000000000000000000000000000000008152600401610274906109e7565b60405180910390fd5b60008060009054906101000a900473ffffffffffffffffffffffffffffffffffffffff1673ffffffffffffffffffffffffffffffffffffffff1663e48a5f7b896040518263ffffffff1660e01b81526004016102d9919061092d565b608060405180830381865afa1580156102f6573d6000803e3d6000fd5b505050506040513d601f19601f8201168201806040525081019061031a9190610b3c565b90508060600151610360576040517f08c379a000000000000000000000000000000000000000000000000000000000815260040161035790610bb5565b60405180910390fd5b6000670de0b6b3a764000084896103779190610c04565b6103819190610c75565b90506000670de0b6b3a7640000848861039a9190610c04565b6103a49190610c75565b9050670de0b6b3a76400008360200151836103bf9190610c04565b6103c99190610c75565b81119550505050505095945050505050565b600080600160009054906101000a900473ffffffffffffffffffffffffffffffffffffffff1673ffffffffffffffffffffffffffffffffffffffff166341976e09876040518263ffffffff1660e01b8152600401610439919061092d565b602060405180830381865afa158015610456573d6000803e3d6000fd5b505050506040513d601f19601f8201168201806040525081019061047a919061095d565b90506000600160009054906101000a900473ffffffffffffffffffffffffffffffffffffffff1673ffffffffffffffffffffffffffffffffffffffff166341976e09866040518263ffffffff1660e01b81526004016104d9919061092d565b602060405180830381865afa1580156104f6573d6000803e3d6000fd5b505050506040513d601f19601f8201168201806040525081019061051a919061095d565b905060008211801561052c5750600081115b61056b576040517f08c379a0000000000000000000000000000000000000000000000000000000008152600401610562906109e7565b60405180910390fd5b60008060009054906101000a900473ffffffffffffffffffffffffffffffffffffffff1673ffffffffffffffffffffffffffffffffffffffff1663e48a5f7b896040518263ffffffff1660e01b81526004016105c7919061092d565b608060405180830381865afa1580156105e4573d6000803e3d6000fd5b505050506040513d601f19601f820116820180604052508101906106089190610b3c565b9050806060015161064e576040517f08c379a000000000000000000000000000000000000000000000000000000000815260040161064590610bb5565b60405180910390fd5b6000670de0b6b3a764000084896106659190610c04565b61066f9190610c75565b90506000670de0b6b3a764000084886106889190610c04565b6106929190610c75565b9050670de0b6b3a76400008360000151836106ad9190610c04565b6106b79190610c75565b8111159550505050505095945050505050565b600160009054906101000a900473ffffffffffffffffffffffffffffffffffffffff1681565b60008054906101000a900473ffffffffffffffffffffffffffffffffffffffff1681565b6000604051905090565b600080fd5b600073ffffffffffffffffffffffffffffffffffffffff82169050919050565b600061074e82610723565b9050919050565b61075e81610743565b811461076957600080fd5b50565b60008135905061077b81610755565b92915050565b6000819050919050565b61079481610781565b811461079f57600080fd5b50565b6000813590506107b18161078b565b92915050565b600080600080600060a086880312156107d3576107d261071e565b5b60006107e18882890161076c565b95505060206107f28882890161076c565b9450506040610803888289016107a2565b93505060606108148882890161076c565b9250506080610825888289016107a2565b9150509295509295909350565b60008115159050919050565b61084781610832565b82525050565b6000602082019050610862600083018461083e565b92915050565b6000819050919050565b600061088d61088861088384610723565b610868565b610723565b9050919050565b600061089f82610872565b9050919050565b60006108b182610894565b9050919050565b6108c1816108a6565b82525050565b60006020820190506108dc60008301846108b8565b92915050565b60006108ed82610894565b9050919050565b6108fd816108e2565b82525050565b600060208201905061091860008301846108f4565b92915050565b61092781610743565b82525050565b6000602082019050610942600083018461091e565b92915050565b6000815190506109578161078b565b92915050565b6000602082840312156109735761097261071e565b5b600061098184828501610948565b91505092915050565b600082825260208201905092915050565b7f496e76616c6964206f7261636c65207072696365000000000000000000000000600082015250565b60006109d160148361098a565b91506109dc8261099b565b602082019050919050565b60006020820190508181036000830152610a00816109c4565b9050919050565b600080fd5b6000601f19601f8301169050919050565b7f4e487b7100000000000000000000000000000000000000000000000000000000600052604160045260246000fd5b610a5582610a0c565b810181811067ffffffffffffffff82111715610a7457610a73610a1d565b5b80604052505050565b6000610a87610714565b9050610a938282610a4c565b919050565b610aa181610832565b8114610aac57600080fd5b50565b600081519050610abe81610a98565b92915050565b600060808284031215610ada57610ad9610a07565b5b610ae46080610a7d565b90506000610af484828501610948565b6000830152506020610b0884828501610948565b6020830152506040610b1c84828501610948565b6040830152506060610b3084828501610aaf565b60608301525092915050565b600060808284031215610b5257610b5161071e565b5b6000610b6084828501610ac4565b91505092915050565b7f436f6c6c61746572616c206173736574206e6f74206163746976650000000000600082015250565b6000610b9f601b8361098a565b9150610baa82610b69565b602082019050919050565b60006020820190508181036000830152610bce81610b92565b9050919050565b7f4e487b7100000000000000000000000000000000000000000000000000000000600052601160045260246000fd5b6000610c0f82610781565b9150610c1a83610781565b9250828202610c2881610781565b91508282048414831517610c3f57610c3e610bd5565b5b5092915050565b7f4e487b7100000000000000000000000000000000000000000000000000000000600052601260045260246000fd5b6000610c8082610781565b9150610c8b83610781565b925082610c9b57610c9a610c46565b5b82820490509291505056fea26469706673582212206fe50d16b068e0adfab6c4d86f6adf797b866bcd8bd1c6d629a6ed980e46536c64736f6c634300081c0033",
  "linkReferences": {},
  "deployedLinkReferences": {}
}