{
  "_format": "hh-sol-artifact-1",
  "contractName": "InterestRateModel",
  "sourceName": "contracts/InterestRateModel.sol",
  "abi": [
    {
      "inputs": [],
      "name": "baseRate",
      "outputs": [
        {
          "internalType": "uint256",
          "name": "",
          "type": "uint256"
        }
      ],
      "stateMutability": "view",
      "type": "function"
    },
    {
      "inputs": [
        {
          "internalType": "uint256",
          "name": "utilization",
          "type": "uint256"
        }
      ],
      "name": "getBorrowRate",
      "outputs": [
        {
          "internalType": "uint256",
          "name": "",
          "type": "uint256"
        }
      ],
      "stateMutability": "view",
      "type": "function"
    },
    {
      "inputs": [],
      "name": "optimalUtilization",
      "outputs": [
        {
          "internalType": "uint256",
          "name": "",
          "type": "uint256"
        }
      ],
      "stateMutability": "view",
      "type": "function"
    },
    {
      "inputs": [],
      "name": "slope1",
      "outputs": [
        {
          "internalType": "uint256",
          "name": "",
          "type": "uint256"
        }
      ],
      "stateMutability": "view",
      "type": "function"
    },
    {
      "inputs": [],
      "name": "slope2",
      "outputs": [
        {
          "internalType": "uint256",
          "name": "",
          "type": "uint256"
        }
      ],
      "stateMutability": "view",
      "type": "function"
    }
  ],
  "bytecode": "0x6080604052662386f26fc10000600055670b1a2bc2ec500000600155668e1bc9bf040000600255670a688906bd8b0000600355348015603d57600080fd5b506103d98061004d6000396000f3fe608060405234801561001057600080fd5b50600436106100575760003560e01c80631f68f20a1461005c5780636290cd1c1461007a5780639fa83b5a14610098578063a62b75a8146100c8578063d0134cb7146100e6575b600080fd5b610064610104565b60405161007191906101f1565b60405180910390f35b61008261010a565b60405161008f91906101f1565b60405180910390f35b6100b260048036038101906100ad919061023d565b610110565b6040516100bf91906101f1565b60405180910390f35b6100d06101cc565b6040516100dd91906101f1565b60405180910390f35b6100ee6101d2565b6040516100fb91906101f1565b60405180910390f35b60005481565b60015481565b6000600154821161015057670de0b6b3a7640000600254836101329190610299565b61013c919061030a565b600054610149919061033b565b90506101c7565b6000670de0b6b3a764000060025460015461016b9190610299565b610175919061030a565b600054610182919061033b565b9050600060015484610194919061036f565b9050670de0b6b3a7640000600354826101ad9190610299565b6101b7919061030a565b826101c2919061033b565b925050505b919050565b60025481565b60035481565b6000819050919050565b6101eb816101d8565b82525050565b600060208201905061020660008301846101e2565b92915050565b600080fd5b61021a816101d8565b811461022557600080fd5b50565b60008135905061023781610211565b92915050565b6000602082840312156102535761025261020c565b5b600061026184828501610228565b91505092915050565b7f4e487b7100000000000000000000000000000000000000000000000000000000600052601160045260246000fd5b60006102a4826101d8565b91506102af836101d8565b92508282026102bd816101d8565b915082820484148315176102d4576102d361026a565b5b5092915050565b7f4e487b7100000000000000000000000000000000000000000000000000000000600052601260045260246000fd5b6000610315826101d8565b9150610320836101d8565b9250826103305761032f6102db565b5b828204905092915050565b6000610346826101d8565b9150610351836101d8565b92508282019050808211156103695761036861026a565b5b92915050565b600061037a826101d8565b9150610385836101d8565b925082820390508181111561039d5761039c61026a565b5b9291505056fea264697066735822122055f884a1120705c7ee74fd963187ef1c59c3210d3193700cd94f585de54a68cb64736f6c634300081c0033",
  "linkReferences": {},
  "deployedLinkReferences": {}
}