{
  "_format": "hh-sol-artifact-1",
  "contractName": "LendingPool",
  "sourceName": "contracts/LendingPool.sol",
  "abi": [
    {
      "inputs": [
        {
          "internalType": "address",
          "name": "_interestModel",
          "type": "address"
        },
        {
          "internalType": "address",
          "name": "_collateralManager",
          "type": "address"
        },
        {
          "internalType": "address",
          "name": "_reserveConfig",
          "type": "address"
        }
      ],
      "stateMutability": "nonpayable",
      "type": "constructor"
    },
    {
      "inputs": [],
      "name": "AccessControlBadConfirmation",
      "type": "error"
    },
    {
      "inputs": [
        {
          "internalType": "address",
          "name": "account",
          "type": "address"
        },
        {
          "internalType": "bytes32",
          "name": "neededRole",
          "type": "bytes32"
        }
      ],
      "name": "AccessControlUnauthorizedAccount",
      "type": "error"
    },
    {
      "inputs": [],
      "name": "CannotLiquidateHealthyPosition",
      "type": "error"
    },
    {
      "inputs": [],
      "name": "EnforcedPause",
      "type": "error"
    },
    {
      "inputs": [],
      "name": "ExpectedPause",
      "type": "error"
    },
    {
      "inputs": [],
      "name": "NotEnoughCollateral",
      "type": "error"
    },
    {
      "inputs": [],
      "name": "ReentrancyGuardReentrantCall",
      "type": "error"
    },
    {
      "inputs": [],
      "name": "ReserveAlreadyInitialized",
      "type": "error"
    },
    {
      "inputs": [],
      "name": "ReserveNotActive",
      "type": "error"
    },
    {
      "inputs": [],
      "name": "ReserveNotInitialized",
      "type": "error"
    },
    {
      "anonymous": false,
      "inputs": [
        {
          "indexed": true,
          "internalType": "address",
          "name": "user",
          "type": "address"
        },
        {
          "indexed": true,
          "internalType": "address",
          "name": "asset",
          "type": "address"
        },
        {
          "indexed": false,
          "internalType": "uint256",
          "name": "amount",
          "type": "uint256"
        }
      ],
      "name": "Borrow",
      "type": "event"
    },
    {
      "anonymous": false,
      "inputs": [
        {
          "indexed": true,
          "internalType": "address",
          "name": "user",
          "type": "address"
        },
        {
          "indexed": true,
          "internalType": "address",
          "name": "asset",
          "type": "address"
        },
        {
          "indexed": false,
          "internalType": "uint256",
          "name": "amount",
          "type": "uint256"
        }
      ],
      "name": "Deposit",
      "type": "event"
    },
    {
      "anonymous": false,
      "inputs": [
        {
          "indexed": true,
          "internalType": "address",
          "name": "liquidator",
          "type": "address"
        },
        {
          "indexed": true,
          "internalType": "address",
          "name": "user",
          "type": "address"
        },
        {
          "indexed": false,
          "internalType": "address",
          "name": "collateralAsset",
          "type": "address"
        },
        {
          "indexed": false,
          "internalType": "address",
          "name": "debtAsset",
          "type": "address"
        },
        {
          "indexed": false,
          "internalType": "uint256",
          "name": "repayAmount",
          "type": "uint256"
        },
        {
          "indexed": false,
          "internalType": "uint256",
          "name": "seizeAmount",
          "type": "uint256"
        }
      ],
      "name": "Liquidation",
      "type": "event"
    },
    {
      "anonymous": false,
      "inputs": [
        {
          "indexed": false,
          "internalType": "address",
          "name": "account",
          "type": "address"
        }
      ],
      "name": "Paused",
      "type": "event"
    },
    {
      "anonymous": false,
      "inputs": [
        {
          "indexed": true,
          "internalType": "address",
          "name": "user",
          "type": "address"
        },
        {
          "indexed": true,
          "internalType": "address",
          "name": "asset",
          "type": "address"
        },
        {
          "indexed": false,
          "internalType": "uint256",
          "name": "amount",
          "type": "uint256"
        }
      ],
      "name": "Repay",
      "type": "event"
    },
    {
      "anonymous": false,
      "inputs": [
        {
          "indexed": true,
          "internalType": "bytes32",
          "name": "role",
          "type": "bytes32"
        },
        {
          "indexed": true,
          "internalType": "bytes32",
          "name": "previousAdminRole",
          "type": "bytes32"
        },
        {
          "indexed": true,
          "internalType": "bytes32",
          "name": "newAdminRole",
          "type": "bytes32"
        }
      ],
      "name": "RoleAdminChanged",
      "type": "event"
    },
    {
      "anonymous": false,
      "inputs": [
        {
          "indexed": true,
          "internalType": "bytes32",
          "name": "role",
          "type": "bytes32"
        },
        {
          "indexed": true,
          "internalType": "address",
          "name": "account",
          "type": "address"
        },
        {
          "indexed": true,
          "internalType": "address",
          "name": "sender",
          "type": "address"
        }
      ],
      "name": "RoleGranted",
      "type": "event"
    },
    {
      "anonymous": false,
      "inputs": [
        {
          "indexed": true,
          "internalType": "bytes32",
          "name": "role",
          "type": "bytes32"
        },
        {
          "indexed": true,
          "internalType": "address",
          "name": "account",
          "type": "address"
        },
        {
          "indexed": true,
          "internalType": "address",
          "name": "sender",
          "type": "address"
        }
      ],
      "name": "RoleRevoked",
      "type": "event"
    },
    {
      "anonymous": false,
      "inputs": [
        {
          "indexed": false,
          "internalType": "address",
          "name": "account",
          "type": "address"
        }
      ],
      "name": "Unpaused",
      "type": "event"
    },
    {
      "anonymous": false,
      "inputs": [
        {
          "indexed": true,
          "internalType": "address",
          "name": "user",
          "type": "address"
        },
        {
          "indexed": true,
          "internalType": "address",
          "name": "asset",
          "type": "address"
        },
        {
          "indexed": false,
          "internalType": "uint256",
          "name": "amount",
          "type": "uint256"
        }
      ],
      "name": "Withdraw",
      "type": "event"
    },
    {
      "inputs": [],
      "name": "ADMIN_ROLE",
      "outputs": [
        {
          "internalType": "bytes32",
          "name": "",
          "type": "bytes32"
        }
      ],
      "stateMutability": "view",
      "type": "function"
    },
    {
      "inputs": [],
      "name": "DEFAULT_ADMIN_ROLE",
      "outputs": [
        {
          "internalType": "bytes32",
          "name": "",
          "type": "bytes32"
        }
      ],
      "stateMutability": "view",
      "type": "function"
    },
    {
      "inputs": [],
      "name": "LIQUIDATOR_ROLE",
      "outputs": [
        {
          "internalType": "bytes32",
          "name": "",
          "type": "bytes32"
        }
      ],
      "stateMutability": "view",
      "type": "function"
    },
    {
      "inputs": [
        {
          "internalType": "address",
          "name": "asset",
          "type": "address"
        },
        {
          "internalType": "uint256",
          "name": "amount",
          "type": "uint256"
        },
        {
          "internalType": "address",
          "name": "collateralAsset",
          "type": "address"
        },
        {
          "internalType": "uint256",
          "name": "collateralAmount",
          "type": "uint256"
        }
      ],
      "name": "borrow",
      "outputs": [],
      "stateMutability": "nonpayable",
      "type": "function"
    },
    {
      "inputs": [],
      "name": "collateralManager",
      "outputs": [
        {
          "internalType": "contract CollateralManager",
          "name": "",
          "type": "address"
        }
      ],
      "stateMutability": "view",
      "type": "function"
    },
    {
      "inputs": [
        {
          "internalType": "address",
          "name": "asset",
          "type": "address"
        },
        {
          "internalType": "uint256",
          "name": "amount",
          "type": "uint256"
        }
      ],
      "name": "deposit",
      "outputs": [],
      "stateMutability": "nonpayable",
      "type": "function"
    },
    {
      "inputs": [
        {
          "internalType": "bytes32",
          "name": "role",
          "type": "bytes32"
        }
      ],
      "name": "getRoleAdmin",
      "outputs": [
        {
          "internalType": "bytes32",
          "name": "",
          "type": "bytes32"
        }
      ],
      "stateMutability": "view",
      "type": "function"
    },
    {
      "inputs": [
        {
          "internalType": "bytes32",
          "name": "role",
          "type": "bytes32"
        },
        {
          "internalType": "address",
          "name": "account",
          "type": "address"
        }
      ],
      "name": "grantRole",
      "outputs": [],
      "stateMutability": "nonpayable",
      "type": "function"
    },
    {
      "inputs": [
        {
          "internalType": "bytes32",
          "name": "role",
          "type": "bytes32"
        },
        {
          "internalType": "address",
          "name": "account",
          "type": "address"
        }
      ],
      "name": "hasRole",
      "outputs": [
        {
          "internalType": "bool",
          "name": "",
          "type": "bool"
        }
      ],
      "stateMutability": "view",
      "type": "function"
    },
    {
      "inputs": [
        {
          "internalType": "address",
          "name": "asset",
          "type": "address"
        },
        {
          "internalType": "address",
          "name": "lToken",
          "type": "address"
        },
        {
          "internalType": "address",
          "name": "debtToken",
          "type": "address"
        }
      ],
      "name": "initReserve",
      "outputs": [],
      "stateMutability": "nonpayable",
      "type": "function"
    },
    {
      "inputs": [],
      "name": "interestModel",
      "outputs": [
        {
          "internalType": "contract InterestRateModel",
          "name": "",
          "type": "address"
        }
      ],
      "stateMutability": "view",
      "type": "function"
    },
    {
      "inputs": [
        {
          "internalType": "address",
          "name": "user",
          "type": "address"
        },
        {
          "internalType": "address",
          "name": "collateralAsset",
          "type": "address"
        },
        {
          "internalType": "address",
          "name": "debtAsset",
          "type": "address"
        },
        {
          "internalType": "uint256",
          "name": "repayAmount",
          "type": "uint256"
        }
      ],
      "name": "liquidate",
      "outputs": [],
      "stateMutability": "nonpayable",
      "type": "function"
    },
    {
      "inputs": [],
      "name": "pause",
      "outputs": [],
      "stateMutability": "nonpayable",
      "type": "function"
    },
    {
      "inputs": [],
      "name": "paused",
      "outputs": [
        {
          "internalType": "bool",
          "name": "",
          "type": "bool"
        }
      ],
      "stateMutability": "view",
      "type": "function"
    },
    {
      "inputs": [
        {
          "internalType": "bytes32",
          "name": "role",
          "type": "bytes32"
        },
        {
          "internalType": "address",
          "name": "callerConfirmation",
          "type": "address"
        }
      ],
      "name": "renounceRole",
      "outputs": [],
      "stateMutability": "nonpayable",
      "type": "function"
    },
    {
      "inputs": [
        {
          "internalType": "address",
          "name": "asset",
          "type": "address"
        },
        {
          "internalType": "uint256",
          "name": "amount",
          "type": "uint256"
        }
      ],
      "name": "repay",
      "outputs": [],
      "stateMutability": "nonpayable",
      "type": "function"
    },
    {
      "inputs": [],
      "name": "reserveConfig",
      "outputs": [
        {
          "internalType": "contract ReserveConfiguration",
          "name": "",
          "type": "address"
        }
      ],
      "stateMutability": "view",
      "type": "function"
    },
    {
      "inputs": [
        {
          "internalType": "address",
          "name": "",
          "type": "address"
        }
      ],
      "name": "reserves",
      "outputs": [
        {
          "internalType": "contract LToken",
          "name": "lToken",
          "type": "address"
        },
        {
          "internalType": "contract DebtToken",
          "name": "debtToken",
          "type": "address"
        },
        {
          "internalType": "uint256",
          "name": "totalDeposits",
          "type": "uint256"
        },
        {
          "internalType": "uint256",
          "name": "totalBorrows",
          "type": "uint256"
        },
        {
          "internalType": "uint256",
          "name": "lastUpdateTimestamp",
          "type": "uint256"
        },
        {
          "internalType": "bool",
          "name": "isInitialized",
          "type": "bool"
        }
      ],
      "stateMutability": "view",
      "type": "function"
    },
    {
      "inputs": [
        {
          "internalType": "bytes32",
          "name": "role",
          "type": "bytes32"
        },
        {
          "internalType": "address",
          "name": "account",
          "type": "address"
        }
      ],
      "name": "revokeRole",
      "outputs": [],
      "stateMutability": "nonpayable",
      "type": "function"
    },
    {
      "inputs": [
        {
          "internalType": "address",
          "name": "asset",
          "type": "address"
        },
        {
          "internalType": "address",
          "name": "newDebtToken",
          "type": "address"
        }
      ],
      "name": "setReserveDebtToken",
      "outputs": [],
      "stateMutability": "nonpayable",
      "type": "function"
    },
    {
      "inputs": [
        {
          "internalType": "address",
          "name": "asset",
          "type": "address"
        },
        {
          "internalType": "address",
          "name": "newLToken",
          "type": "address"
        }
      ],
      "name": "setReserveLToken",
      "outputs": [],
      "stateMutability": "nonpayable",
      "type": "function"
    },
    {
      "inputs": [
        {
          "internalType": "address",
          "name": "asset",
          "type": "address"
        },
        {
          "internalType": "address",
          "name": "lToken",
          "type": "address"
        },
        {
          "internalType": "address",
          "name": "debtToken",
          "type": "address"
        }
      ],
      "name": "setReserveTokens",
      "outputs": [],
      "stateMutability": "nonpayable",
      "type": "function"
    },
    {
      "inputs": [
        {
          "internalType": "bytes4",
          "name": "interfaceId",
          "type": "bytes4"
        }
      ],
      "name": "supportsInterface",
      "outputs": [
        {
          "internalType": "bool",
          "name": "",
          "type": "bool"
        }
      ],
      "stateMutability": "view",
      "type": "function"
    },
    {
      "inputs": [],
      "name": "unpause",
      "outputs": [],
      "stateMutability": "nonpayable",
      "type": "function"
    },
    {
      "inputs": [
        {
          "internalType": "address",
          "name": "",
          "type": "address"
        },
        {
          "internalType": "address",
          "name": "",
          "type": "address"
        }
      ],
      "name": "userLastInterest",
      "outputs": [
        {
          "internalType": "uint256",
          "name": "",
          "type": "uint256"
        }
      ],
      "stateMutability": "view",
      "type": "function"
    },
    {
      "inputs": [
        {
          "internalType": "address",
          "name": "asset",
          "type": "address"
        },
        {
          "internalType": "uint256",
          "name": "amount",
          "type": "uint256"
        }
      ],
      "name": "withdraw",
      "outputs": [],
      "stateMutability": "nonpayable",
      "type": "function"
    }
  ],
  "bytecode": "0x608060405234801561001057600080fd5b506040516137e03803806137e0833981810160405281019061003291906102ea565b6001808190555061004c6000801b3361011860201b60201c565b5082600460006101000a81548173ffffffffffffffffffffffffffffffffffffffff021916908373ffffffffffffffffffffffffffffffffffffffff16021790555081600560006101000a81548173ffffffffffffffffffffffffffffffffffffffff021916908373ffffffffffffffffffffffffffffffffffffffff16021790555080600660006101000a81548173ffffffffffffffffffffffffffffffffffffffff021916908373ffffffffffffffffffffffffffffffffffffffff16021790555050505061033d565b600061012a838361021560201b60201c565b61020a57600160008085815260200190815260200160002060000160008473ffffffffffffffffffffffffffffffffffffffff1673ffffffffffffffffffffffffffffffffffffffff16815260200190815260200160002060006101000a81548160ff0219169083151502179055506101a761027f60201b60201c565b73ffffffffffffffffffffffffffffffffffffffff168273ffffffffffffffffffffffffffffffffffffffff16847f2f8788117e7eff1d82e926ec794901d17c78024a50270940304540a733656f0d60405160405180910390a46001905061020f565b600090505b92915050565b600080600084815260200190815260200160002060000160008373ffffffffffffffffffffffffffffffffffffffff1673ffffffffffffffffffffffffffffffffffffffff16815260200190815260200160002060009054906101000a900460ff16905092915050565b600033905090565b600080fd5b600073ffffffffffffffffffffffffffffffffffffffff82169050919050565b60006102b78261028c565b9050919050565b6102c7816102ac565b81146102d257600080fd5b50565b6000815190506102e4816102be565b92915050565b60008060006060848603121561030357610302610287565b5b6000610311868287016102d5565b9350506020610322868287016102d5565b9250506040610333868287016102d5565b9150509250925092565b6134948061034c6000396000f3fe608060405234801561001057600080fd5b506004361061018e5760003560e01c806391d14854116100de578063ac165d7a11610097578063d547741f11610071578063d547741f14610433578063d66bd5241461044f578063e57d99d714610484578063f3fef3a3146104a25761018e565b8063ac165d7a146103dd578063b12de1d2146103fb578063d0280539146104175761018e565b806391d148541461031f578063932f12c81461034f578063962df7f61461036b578063a217fddf14610387578063aab3f868146103a5578063ab36052f146103c15761018e565b806336568abe1161014b5780635c975abb116101255780635c975abb146102a957806375b238fc146102c7578063760fc54f146102e55780638456cb59146103155761018e565b806336568abe146102675780633f4ba83a1461028357806347e7ef241461028d5761018e565b806301ffc9a71461019357806316d8887a146101c357806322867d78146101e157806323be345c146101fd578063248a9ca31461021b5780632f2ff15d1461024b575b600080fd5b6101ad60048036038101906101a89190612a4d565b6104be565b6040516101ba9190612a95565b60405180910390f35b6101cb610538565b6040516101d89190612ac9565b60405180910390f35b6101fb60048036038101906101f69190612b78565b61055c565b005b610205610817565b6040516102129190612c17565b60405180910390f35b61023560048036038101906102309190612c5e565b61083d565b6040516102429190612ac9565b60405180910390f35b61026560048036038101906102609190612c8b565b61085c565b005b610281600480360381019061027c9190612c8b565b61087e565b005b61028b6108f9565b005b6102a760048036038101906102a29190612b78565b61092e565b005b6102b1610cbf565b6040516102be9190612a95565b60405180910390f35b6102cf610cd6565b6040516102dc9190612ac9565b60405180910390f35b6102ff60048036038101906102fa9190612ccb565b610cfa565b60405161030c9190612d1a565b60405180910390f35b61031d610d1f565b005b61033960048036038101906103349190612c8b565b610d54565b6040516103469190612a95565b60405180910390f35b61036960048036038101906103649190612d35565b610dbe565b005b61038560048036038101906103809190612ccb565b610fe1565b005b61038f611117565b60405161039c9190612ac9565b60405180910390f35b6103bf60048036038101906103ba9190612d88565b61111e565b005b6103db60048036038101906103d69190612ccb565b6118bf565b005b6103e56119f5565b6040516103f29190612e10565b60405180910390f35b61041560048036038101906104109190612d35565b611a1b565b005b610431600480360381019061042c9190612e2b565b611bd3565b005b61044d60048036038101906104489190612c8b565b61203e565b005b61046960048036038101906104649190612e92565b612060565b60405161047b96959493929190612f01565b60405180910390f35b61048c6120e9565b6040516104999190612f83565b60405180910390f35b6104bc60048036038101906104b79190612b78565b61210f565b005b60007f7965db0b000000000000000000000000000000000000000000000000000000007bffffffffffffffffffffffffffffffffffffffffffffffffffffffff1916827bffffffffffffffffffffffffffffffffffffffffffffffffffffffff191614806105315750610530826123c8565b5b9050919050565b7f5e17fc5225d4a099df75359ce1f405503ca79498a8dc46a7d583235a0ee45c1681565b610564612432565b61056c612478565b81600360008273ffffffffffffffffffffffffffffffffffffffff1673ffffffffffffffffffffffffffffffffffffffff16815260200190815260200160002060050160009054906101000a900460ff166105f3576040517f3c1b493800000000000000000000000000000000000000000000000000000000815260040160405180910390fd5b6105fc836124b9565b8273ffffffffffffffffffffffffffffffffffffffff166323b872dd3330856040518463ffffffff1660e01b815260040161063993929190612fad565b6020604051808303816000875af1158015610658573d6000803e3d6000fd5b505050506040513d601f19601f8201168201806040525081019061067c9190613010565b50600360008473ffffffffffffffffffffffffffffffffffffffff1673ffffffffffffffffffffffffffffffffffffffff16815260200190815260200160002060010160009054906101000a900473ffffffffffffffffffffffffffffffffffffffff1673ffffffffffffffffffffffffffffffffffffffff16639dc29fac33846040518363ffffffff1660e01b815260040161071a92919061303d565b600060405180830381600087803b15801561073457600080fd5b505af1158015610748573d6000803e3d6000fd5b5050505081600360008573ffffffffffffffffffffffffffffffffffffffff1673ffffffffffffffffffffffffffffffffffffffff168152602001908152602001600020600301600082825461079e9190613095565b925050819055508273ffffffffffffffffffffffffffffffffffffffff163373ffffffffffffffffffffffffffffffffffffffff167f05f2eeda0e08e4b437f487c8d7d29b14537d15e3488170dc3de5dbdf8dac4684846040516108029190612d1a565b60405180910390a35061081361264d565b5050565b600560009054906101000a900473ffffffffffffffffffffffffffffffffffffffff1681565b6000806000838152602001908152602001600020600101549050919050565b6108658261083d565b61086e81612656565b610878838361266a565b50505050565b61088661275b565b73ffffffffffffffffffffffffffffffffffffffff168173ffffffffffffffffffffffffffffffffffffffff16146108ea576040517f6697b23200000000000000000000000000000000000000000000000000000000815260040160405180910390fd5b6108f48282612763565b505050565b7fa49807205ce4d355092ef5a8a18f56e8913cf4a201fbe287825b095693c2177561092381612656565b61092b612855565b50565b610936612432565b61093e612478565b81600360008273ffffffffffffffffffffffffffffffffffffffff1673ffffffffffffffffffffffffffffffffffffffff16815260200190815260200160002060050160009054906101000a900460ff166109c5576040517f3c1b493800000000000000000000000000000000000000000000000000000000815260040160405180910390fd5b600660009054906101000a900473ffffffffffffffffffffffffffffffffffffffff1673ffffffffffffffffffffffffffffffffffffffff1663e48a5f7b846040518263ffffffff1660e01b8152600401610a2091906130c9565b608060405180830381865afa158015610a3d573d6000803e3d6000fd5b505050506040513d601f19601f82011682018060405250810190610a619190613202565b60600151610a9b576040517f40753f3300000000000000000000000000000000000000000000000000000000815260040160405180910390fd5b610aa4836124b9565b8273ffffffffffffffffffffffffffffffffffffffff166323b872dd3330856040518463ffffffff1660e01b8152600401610ae193929190612fad565b6020604051808303816000875af1158015610b00573d6000803e3d6000fd5b505050506040513d601f19601f82011682018060405250810190610b249190613010565b50600360008473ffffffffffffffffffffffffffffffffffffffff1673ffffffffffffffffffffffffffffffffffffffff16815260200190815260200160002060000160009054906101000a900473ffffffffffffffffffffffffffffffffffffffff1673ffffffffffffffffffffffffffffffffffffffff166340c10f1933846040518363ffffffff1660e01b8152600401610bc292919061303d565b600060405180830381600087803b158015610bdc57600080fd5b505af1158015610bf0573d6000803e3d6000fd5b5050505081600360008573ffffffffffffffffffffffffffffffffffffffff1673ffffffffffffffffffffffffffffffffffffffff1681526020019081526020016000206002016000828254610c46919061322f565b925050819055508273ffffffffffffffffffffffffffffffffffffffff163373ffffffffffffffffffffffffffffffffffffffff167f5548c837ab068cf56a2c2479df0882a4922fd203edb7517321831d95078c5f6284604051610caa9190612d1a565b60405180910390a350610cbb61264d565b5050565b6000600260009054906101000a900460ff16905090565b7fa49807205ce4d355092ef5a8a18f56e8913cf4a201fbe287825b095693c2177581565b6007602052816000526040600020602052806000526040600020600091509150505481565b7fa49807205ce4d355092ef5a8a18f56e8913cf4a201fbe287825b095693c21775610d4981612656565b610d516128b8565b50565b600080600084815260200190815260200160002060000160008373ffffffffffffffffffffffffffffffffffffffff1673ffffffffffffffffffffffffffffffffffffffff16815260200190815260200160002060009054906101000a900460ff16905092915050565b7fa49807205ce4d355092ef5a8a18f56e8913cf4a201fbe287825b095693c21775610de881612656565b600360008573ffffffffffffffffffffffffffffffffffffffff1673ffffffffffffffffffffffffffffffffffffffff16815260200190815260200160002060050160009054906101000a900460ff1615610e6f576040517fd71b1fd100000000000000000000000000000000000000000000000000000000815260040160405180910390fd5b6040518060c001604052808473ffffffffffffffffffffffffffffffffffffffff1681526020018373ffffffffffffffffffffffffffffffffffffffff168152602001600081526020016000815260200142815260200160011515815250600360008673ffffffffffffffffffffffffffffffffffffffff1673ffffffffffffffffffffffffffffffffffffffff16815260200190815260200160002060008201518160000160006101000a81548173ffffffffffffffffffffffffffffffffffffffff021916908373ffffffffffffffffffffffffffffffffffffffff16021790555060208201518160010160006101000a81548173ffffffffffffffffffffffffffffffffffffffff021916908373ffffffffffffffffffffffffffffffffffffffff16021790555060408201518160020155606082015181600301556080820151816004015560a08201518160050160006101000a81548160ff02191690831515021790555090505050505050565b7fa49807205ce4d355092ef5a8a18f56e8913cf4a201fbe287825b095693c2177561100b81612656565b600360008473ffffffffffffffffffffffffffffffffffffffff1673ffffffffffffffffffffffffffffffffffffffff16815260200190815260200160002060050160009054906101000a900460ff16611091576040517f3c1b493800000000000000000000000000000000000000000000000000000000815260040160405180910390fd5b81600360008573ffffffffffffffffffffffffffffffffffffffff1673ffffffffffffffffffffffffffffffffffffffff16815260200190815260200160002060010160006101000a81548173ffffffffffffffffffffffffffffffffffffffff021916908373ffffffffffffffffffffffffffffffffffffffff160217905550505050565b6000801b81565b611126612432565b7f5e17fc5225d4a099df75359ce1f405503ca79498a8dc46a7d583235a0ee45c1661115081612656565b600560009054906101000a900473ffffffffffffffffffffffffffffffffffffffff1673ffffffffffffffffffffffffffffffffffffffff16631e3ddf5886868773ffffffffffffffffffffffffffffffffffffffff166370a082318a6040518263ffffffff1660e01b81526004016111c991906130c9565b602060405180830381865afa1580156111e6573d6000803e3d6000fd5b505050506040513d601f19601f8201168201806040525081019061120a9190613263565b87876040518663ffffffff1660e01b815260040161122c959493929190613290565b602060405180830381865afa158015611249573d6000803e3d6000fd5b505050506040513d601f19601f8201168201806040525081019061126d9190613010565b6112a3576040517fe13deeda00000000000000000000000000000000000000000000000000000000815260040160405180910390fd5b6112ac836124b9565b8273ffffffffffffffffffffffffffffffffffffffff166323b872dd3330856040518463ffffffff1660e01b81526004016112e993929190612fad565b6020604051808303816000875af1158015611308573d6000803e3d6000fd5b505050506040513d601f19601f8201168201806040525081019061132c9190613010565b50600360008473ffffffffffffffffffffffffffffffffffffffff1673ffffffffffffffffffffffffffffffffffffffff16815260200190815260200160002060010160009054906101000a900473ffffffffffffffffffffffffffffffffffffffff1673ffffffffffffffffffffffffffffffffffffffff16639dc29fac86846040518363ffffffff1660e01b81526004016113ca92919061303d565b600060405180830381600087803b1580156113e457600080fd5b505af11580156113f8573d6000803e3d6000fd5b5050505081600360008573ffffffffffffffffffffffffffffffffffffffff1673ffffffffffffffffffffffffffffffffffffffff168152602001908152602001600020600301600082825461144e9190613095565b925050819055506000600560009054906101000a900473ffffffffffffffffffffffffffffffffffffffff1673ffffffffffffffffffffffffffffffffffffffff16637dc0d1d06040518163ffffffff1660e01b8152600401602060405180830381865afa1580156114c4573d6000803e3d6000fd5b505050506040513d601f19601f820116820180604052508101906114e89190613321565b73ffffffffffffffffffffffffffffffffffffffff166341976e09856040518263ffffffff1660e01b815260040161152091906130c9565b602060405180830381865afa15801561153d573d6000803e3d6000fd5b505050506040513d601f19601f820116820180604052508101906115619190613263565b90506000600560009054906101000a900473ffffffffffffffffffffffffffffffffffffffff1673ffffffffffffffffffffffffffffffffffffffff16637dc0d1d06040518163ffffffff1660e01b8152600401602060405180830381865afa1580156115d2573d6000803e3d6000fd5b505050506040513d601f19601f820116820180604052508101906115f69190613321565b73ffffffffffffffffffffffffffffffffffffffff166341976e09876040518263ffffffff1660e01b815260040161162e91906130c9565b602060405180830381865afa15801561164b573d6000803e3d6000fd5b505050506040513d601f19601f8201168201806040525081019061166f9190613263565b90506000816064606e8588611684919061334e565b61168e919061334e565b61169891906133bf565b6116a291906133bf565b9050600360008873ffffffffffffffffffffffffffffffffffffffff1673ffffffffffffffffffffffffffffffffffffffff16815260200190815260200160002060000160009054906101000a900473ffffffffffffffffffffffffffffffffffffffff1673ffffffffffffffffffffffffffffffffffffffff16639dc29fac89836040518363ffffffff1660e01b815260040161174192919061303d565b600060405180830381600087803b15801561175b57600080fd5b505af115801561176f573d6000803e3d6000fd5b50505050600360008873ffffffffffffffffffffffffffffffffffffffff1673ffffffffffffffffffffffffffffffffffffffff16815260200190815260200160002060000160009054906101000a900473ffffffffffffffffffffffffffffffffffffffff1673ffffffffffffffffffffffffffffffffffffffff166340c10f1933836040518363ffffffff1660e01b815260040161181092919061303d565b600060405180830381600087803b15801561182a57600080fd5b505af115801561183e573d6000803e3d6000fd5b505050508773ffffffffffffffffffffffffffffffffffffffff163373ffffffffffffffffffffffffffffffffffffffff167f64f7c2c46814e079964a1934953e50adc025dc52cdbeb7d8e478e9fb9bfd2c2d898989866040516118a594939291906133f0565b60405180910390a3505050506118b961264d565b50505050565b7fa49807205ce4d355092ef5a8a18f56e8913cf4a201fbe287825b095693c217756118e981612656565b600360008473ffffffffffffffffffffffffffffffffffffffff1673ffffffffffffffffffffffffffffffffffffffff16815260200190815260200160002060050160009054906101000a900460ff1661196f576040517f3c1b493800000000000000000000000000000000000000000000000000000000815260040160405180910390fd5b81600360008573ffffffffffffffffffffffffffffffffffffffff1673ffffffffffffffffffffffffffffffffffffffff16815260200190815260200160002060000160006101000a81548173ffffffffffffffffffffffffffffffffffffffff021916908373ffffffffffffffffffffffffffffffffffffffff160217905550505050565b600460009054906101000a900473ffffffffffffffffffffffffffffffffffffffff1681565b7fa49807205ce4d355092ef5a8a18f56e8913cf4a201fbe287825b095693c21775611a4581612656565b600360008573ffffffffffffffffffffffffffffffffffffffff1673ffffffffffffffffffffffffffffffffffffffff16815260200190815260200160002060050160009054906101000a900460ff16611acb576040517f3c1b493800000000000000000000000000000000000000000000000000000000815260040160405180910390fd5b82600360008673ffffffffffffffffffffffffffffffffffffffff1673ffffffffffffffffffffffffffffffffffffffff16815260200190815260200160002060000160006101000a81548173ffffffffffffffffffffffffffffffffffffffff021916908373ffffffffffffffffffffffffffffffffffffffff16021790555081600360008673ffffffffffffffffffffffffffffffffffffffff1673ffffffffffffffffffffffffffffffffffffffff16815260200190815260200160002060010160006101000a81548173ffffffffffffffffffffffffffffffffffffffff021916908373ffffffffffffffffffffffffffffffffffffffff16021790555050505050565b611bdb612432565b611be3612478565b83600360008273ffffffffffffffffffffffffffffffffffffffff1673ffffffffffffffffffffffffffffffffffffffff16815260200190815260200160002060050160009054906101000a900460ff16611c6a576040517f3c1b493800000000000000000000000000000000000000000000000000000000815260040160405180910390fd5b600660009054906101000a900473ffffffffffffffffffffffffffffffffffffffff1673ffffffffffffffffffffffffffffffffffffffff1663e48a5f7b866040518263ffffffff1660e01b8152600401611cc591906130c9565b608060405180830381865afa158015611ce2573d6000803e3d6000fd5b505050506040513d601f19601f82011682018060405250810190611d069190613202565b60600151611d40576040517f40753f3300000000000000000000000000000000000000000000000000000000815260040160405180910390fd5b600560009054906101000a900473ffffffffffffffffffffffffffffffffffffffff1673ffffffffffffffffffffffffffffffffffffffff16633a8f6bf233858589896040518663ffffffff1660e01b8152600401611da3959493929190613290565b602060405180830381865afa158015611dc0573d6000803e3d6000fd5b505050506040513d601f19601f82011682018060405250810190611de49190613010565b611e1a576040517f34477cc000000000000000000000000000000000000000000000000000000000815260040160405180910390fd5b611e23856124b9565b600360008673ffffffffffffffffffffffffffffffffffffffff1673ffffffffffffffffffffffffffffffffffffffff16815260200190815260200160002060010160009054906101000a900473ffffffffffffffffffffffffffffffffffffffff1673ffffffffffffffffffffffffffffffffffffffff166340c10f1933866040518363ffffffff1660e01b8152600401611ec092919061303d565b600060405180830381600087803b158015611eda57600080fd5b505af1158015611eee573d6000803e3d6000fd5b5050505083600360008773ffffffffffffffffffffffffffffffffffffffff1673ffffffffffffffffffffffffffffffffffffffff1681526020019081526020016000206003016000828254611f44919061322f565b925050819055508473ffffffffffffffffffffffffffffffffffffffff1663a9059cbb33866040518363ffffffff1660e01b8152600401611f8692919061303d565b6020604051808303816000875af1158015611fa5573d6000803e3d6000fd5b505050506040513d601f19601f82011682018060405250810190611fc99190613010565b508473ffffffffffffffffffffffffffffffffffffffff163373ffffffffffffffffffffffffffffffffffffffff167f312a5e5e1079f5dda4e95dbbd0b908b291fd5b992ef22073643ab691572c5b52866040516120279190612d1a565b60405180910390a35061203861264d565b50505050565b6120478261083d565b61205081612656565b61205a8383612763565b50505050565b60036020528060005260406000206000915090508060000160009054906101000a900473ffffffffffffffffffffffffffffffffffffffff16908060010160009054906101000a900473ffffffffffffffffffffffffffffffffffffffff16908060020154908060030154908060040154908060050160009054906101000a900460ff16905086565b600660009054906101000a900473ffffffffffffffffffffffffffffffffffffffff1681565b612117612432565b61211f612478565b81600360008273ffffffffffffffffffffffffffffffffffffffff1673ffffffffffffffffffffffffffffffffffffffff16815260200190815260200160002060050160009054906101000a900460ff166121a6576040517f3c1b493800000000000000000000000000000000000000000000000000000000815260040160405180910390fd5b6121af836124b9565b600360008473ffffffffffffffffffffffffffffffffffffffff1673ffffffffffffffffffffffffffffffffffffffff16815260200190815260200160002060000160009054906101000a900473ffffffffffffffffffffffffffffffffffffffff1673ffffffffffffffffffffffffffffffffffffffff16639dc29fac33846040518363ffffffff1660e01b815260040161224c92919061303d565b600060405180830381600087803b15801561226657600080fd5b505af115801561227a573d6000803e3d6000fd5b5050505081600360008573ffffffffffffffffffffffffffffffffffffffff1673ffffffffffffffffffffffffffffffffffffffff16815260200190815260200160002060020160008282546122d09190613095565b925050819055508273ffffffffffffffffffffffffffffffffffffffff1663a9059cbb33846040518363ffffffff1660e01b815260040161231292919061303d565b6020604051808303816000875af1158015612331573d6000803e3d6000fd5b505050506040513d601f19601f820116820180604052508101906123559190613010565b508273ffffffffffffffffffffffffffffffffffffffff163373ffffffffffffffffffffffffffffffffffffffff167f9b1bfa7fa9ee420a16e124f794c35ac9f90472acc99140eb2f6447c714cad8eb846040516123b39190612d1a565b60405180910390a3506123c461264d565b5050565b60007f01ffc9a7000000000000000000000000000000000000000000000000000000007bffffffffffffffffffffffffffffffffffffffffffffffffffffffff1916827bffffffffffffffffffffffffffffffffffffffffffffffffffffffff1916149050919050565b60026001540361246e576040517f3ee5aeb500000000000000000000000000000000000000000000000000000000815260040160405180910390fd5b6002600181905550565b612480610cbf565b156124b7576040517fd93c066500000000000000000000000000000000000000000000000000000000815260040160405180910390fd5b565b6000600360008373ffffffffffffffffffffffffffffffffffffffff1673ffffffffffffffffffffffffffffffffffffffff1681526020019081526020016000209050600081600401544261250e9190613095565b90506000811480612523575060008260030154145b1561252f57505061264a565b600061254c8360020154846003015461291b90919063ffffffff16565b90506000600460009054906101000a900473ffffffffffffffffffffffffffffffffffffffff1673ffffffffffffffffffffffffffffffffffffffff16639fa83b5a836040518263ffffffff1660e01b81526004016125ab9190612d1a565b602060405180830381865afa1580156125c8573d6000803e3d6000fd5b505050506040513d601f19601f820116820180604052508101906125ec9190613263565b90506000670de0b6b3a76400008483876003015461260a919061334e565b612614919061334e565b61261e91906133bf565b905080856003016000828254612634919061322f565b9250508190555042856004018190555050505050505b50565b60018081905550565b6126678161266261275b565b612955565b50565b60006126768383610d54565b61275057600160008085815260200190815260200160002060000160008473ffffffffffffffffffffffffffffffffffffffff1673ffffffffffffffffffffffffffffffffffffffff16815260200190815260200160002060006101000a81548160ff0219169083151502179055506126ed61275b565b73ffffffffffffffffffffffffffffffffffffffff168273ffffffffffffffffffffffffffffffffffffffff16847f2f8788117e7eff1d82e926ec794901d17c78024a50270940304540a733656f0d60405160405180910390a460019050612755565b600090505b92915050565b600033905090565b600061276f8383610d54565b1561284a57600080600085815260200190815260200160002060000160008473ffffffffffffffffffffffffffffffffffffffff1673ffffffffffffffffffffffffffffffffffffffff16815260200190815260200160002060006101000a81548160ff0219169083151502179055506127e761275b565b73ffffffffffffffffffffffffffffffffffffffff168273ffffffffffffffffffffffffffffffffffffffff16847ff6391f5c32d9c69d2a47ea670b442974b53935d1edc7fd64eb21e047a839171b60405160405180910390a46001905061284f565b600090505b92915050565b61285d6129a6565b6000600260006101000a81548160ff0219169083151502179055507f5db9ee0a495bf2e6ff9c91a7834c1ba4fdd244a5e8aa4e537bd38aeae4b073aa6128a161275b565b6040516128ae91906130c9565b60405180910390a1565b6128c0612478565b6001600260006101000a81548160ff0219169083151502179055507f62e78cea01bee320cd4e420270b5ea74000d11b0c9f74754ebdbfc544b05a25861290461275b565b60405161291191906130c9565b60405180910390a1565b600080820361292d576000905061294f565b81670de0b6b3a764000084612942919061334e565b61294c91906133bf565b90505b92915050565b61295f8282610d54565b6129a25780826040517fe2517d3f000000000000000000000000000000000000000000000000000000008152600401612999929190613435565b60405180910390fd5b5050565b6129ae610cbf565b6129e4576040517f8dfc202b00000000000000000000000000000000000000000000000000000000815260040160405180910390fd5b565b6000604051905090565b600080fd5b60007fffffffff0000000000000000000000000000000000000000000000000000000082169050919050565b612a2a816129f5565b8114612a3557600080fd5b50565b600081359050612a4781612a21565b92915050565b600060208284031215612a6357612a626129f0565b5b6000612a7184828501612a38565b91505092915050565b60008115159050919050565b612a8f81612a7a565b82525050565b6000602082019050612aaa6000830184612a86565b92915050565b6000819050919050565b612ac381612ab0565b82525050565b6000602082019050612ade6000830184612aba565b92915050565b600073ffffffffffffffffffffffffffffffffffffffff82169050919050565b6000612b0f82612ae4565b9050919050565b612b1f81612b04565b8114612b2a57600080fd5b50565b600081359050612b3c81612b16565b92915050565b6000819050919050565b612b5581612b42565b8114612b6057600080fd5b50565b600081359050612b7281612b4c565b92915050565b60008060408385031215612b8f57612b8e6129f0565b5b6000612b9d85828601612b2d565b9250506020612bae85828601612b63565b9150509250929050565b6000819050919050565b6000612bdd612bd8612bd384612ae4565b612bb8565b612ae4565b9050919050565b6000612bef82612bc2565b9050919050565b6000612c0182612be4565b9050919050565b612c1181612bf6565b82525050565b6000602082019050612c2c6000830184612c08565b92915050565b612c3b81612ab0565b8114612c4657600080fd5b50565b600081359050612c5881612c32565b92915050565b600060208284031215612c7457612c736129f0565b5b6000612c8284828501612c49565b91505092915050565b60008060408385031215612ca257612ca16129f0565b5b6000612cb085828601612c49565b9250506020612cc185828601612b2d565b9150509250929050565b60008060408385031215612ce257612ce16129f0565b5b6000612cf085828601612b2d565b9250506020612d0185828601612b2d565b9150509250929050565b612d1481612b42565b82525050565b6000602082019050612d2f6000830184612d0b565b92915050565b600080600060608486031215612d4e57612d4d6129f0565b5b6000612d5c86828701612b2d565b9350506020612d6d86828701612b2d565b9250506040612d7e86828701612b2d565b9150509250925092565b60008060008060808587031215612da257612da16129f0565b5b6000612db087828801612b2d565b9450506020612dc187828801612b2d565b9350506040612dd287828801612b2d565b9250506060612de387828801612b63565b91505092959194509250565b6000612dfa82612be4565b9050919050565b612e0a81612def565b82525050565b6000602082019050612e256000830184612e01565b92915050565b60008060008060808587031215612e4557612e446129f0565b5b6000612e5387828801612b2d565b9450506020612e6487828801612b63565b9350506040612e7587828801612b2d565b9250506060612e8687828801612b63565b91505092959194509250565b600060208284031215612ea857612ea76129f0565b5b6000612eb684828501612b2d565b91505092915050565b6000612eca82612be4565b9050919050565b612eda81612ebf565b82525050565b6000612eeb82612be4565b9050919050565b612efb81612ee0565b82525050565b600060c082019050612f166000830189612ed1565b612f236020830188612ef2565b612f306040830187612d0b565b612f3d6060830186612d0b565b612f4a6080830185612d0b565b612f5760a0830184612a86565b979650505050505050565b6000612f6d82612be4565b9050919050565b612f7d81612f62565b82525050565b6000602082019050612f986000830184612f74565b92915050565b612fa781612b04565b82525050565b6000606082019050612fc26000830186612f9e565b612fcf6020830185612f9e565b612fdc6040830184612d0b565b949350505050565b612fed81612a7a565b8114612ff857600080fd5b50565b60008151905061300a81612fe4565b92915050565b600060208284031215613026576130256129f0565b5b600061303484828501612ffb565b91505092915050565b60006040820190506130526000830185612f9e565b61305f6020830184612d0b565b9392505050565b7f4e487b7100000000000000000000000000000000000000000000000000000000600052601160045260246000fd5b60006130a082612b42565b91506130ab83612b42565b92508282039050818111156130c3576130c2613066565b5b92915050565b60006020820190506130de6000830184612f9e565b92915050565b600080fd5b6000601f19601f8301169050919050565b7f4e487b7100000000000000000000000000000000000000000000000000000000600052604160045260246000fd5b613132826130e9565b810181811067ffffffffffffffff82111715613151576131506130fa565b5b80604052505050565b60006131646129e6565b90506131708282613129565b919050565b60008151905061318481612b4c565b92915050565b6000608082840312156131a05761319f6130e4565b5b6131aa608061315a565b905060006131ba84828501613175565b60008301525060206131ce84828501613175565b60208301525060406131e284828501613175565b60408301525060606131f684828501612ffb565b60608301525092915050565b600060808284031215613218576132176129f0565b5b60006132268482850161318a565b91505092915050565b600061323a82612b42565b915061324583612b42565b925082820190508082111561325d5761325c613066565b5b92915050565b600060208284031215613279576132786129f0565b5b600061328784828501613175565b91505092915050565b600060a0820190506132a56000830188612f9e565b6132b26020830187612f9e565b6132bf6040830186612d0b565b6132cc6060830185612f9e565b6132d96080830184612d0b565b9695505050505050565b60006132ee82612b04565b9050919050565b6132fe816132e3565b811461330957600080fd5b50565b60008151905061331b816132f5565b92915050565b600060208284031215613337576133366129f0565b5b60006133458482850161330c565b91505092915050565b600061335982612b42565b915061336483612b42565b925082820261337281612b42565b9150828204841483151761338957613388613066565b5b5092915050565b7f4e487b7100000000000000000000000000000000000000000000000000000000600052601260045260246000fd5b60006133ca82612b42565b91506133d583612b42565b9250826133e5576133e4613390565b5b828204905092915050565b60006080820190506134056000830187612f9e565b6134126020830186612f9e565b61341f6040830185612d0b565b61342c6060830184612d0b565b95945050505050565b600060408201905061344a6000830185612f9e565b6134576020830184612aba565b939250505056fea26469706673582212200161b85cf98688173d66b16161e745f431d794a32acc25fc3401fc7f298bc33364736f6c634300081c0033",
  "linkReferences": {},
  "deployedLinkReferences": {}
}