{
  "_format": "hh-sol-artifact-1",
  "contractName": "LToken",
  "sourceName": "contracts/LToken.sol",
  "abi": [
    {
      "inputs": [],
      "stateMutability": "nonpayable",
      "type": "constructor"
    },
    {
      "inputs": [],
      "name": "AccessControlBadConfirmation",
      "type": "error"
    },
    {
      "inputs": [
        {
          "internalType": "address",
          "name": "account",
          "type": "address"
        },
        {
          "internalType": "bytes32",
          "name": "neededRole",
          "type": "bytes32"
        }
      ],
      "name": "AccessControlUnauthorizedAccount",
      "type": "error"
    },
    {
      "inputs": [
        {
          "internalType": "address",
          "name": "spender",
          "type": "address"
        },
        {
          "internalType": "uint256",
          "name": "allowance",
          "type": "uint256"
        },
        {
          "internalType": "uint256",
          "name": "needed",
          "type": "uint256"
        }
      ],
      "name": "ERC20InsufficientAllowance",
      "type": "error"
    },
    {
      "inputs": [
        {
          "internalType": "address",
          "name": "sender",
          "type": "address"
        },
        {
          "internalType": "uint256",
          "name": "balance",
          "type": "uint256"
        },
        {
          "internalType": "uint256",
          "name": "needed",
          "type": "uint256"
        }
      ],
      "name": "ERC20InsufficientBalance",
      "type": "error"
    },
    {
      "inputs": [
        {
          "internalType": "address",
          "name": "approver",
          "type": "address"
        }
      ],
      "name": "ERC20InvalidApprover",
      "type": "error"
    },
    {
      "inputs": [
        {
          "internalType": "address",
          "name": "receiver",
          "type": "address"
        }
      ],
      "name": "ERC20InvalidReceiver",
      "type": "error"
    },
    {
      "inputs": [
        {
          "internalType": "address",
          "name": "sender",
          "type": "address"
        }
      ],
      "name": "ERC20InvalidSender",
      "type": "error"
    },
    {
      "inputs": [
        {
          "internalType": "address",
          "name": "spender",
          "type": "address"
        }
      ],
      "name": "ERC20InvalidSpender",
      "type": "error"
    },
    {
      "anonymous": false,
      "inputs": [
        {
          "indexed": true,
          "internalType": "address",
          "name": "owner",
          "type": "address"
        },
        {
          "indexed": true,
          "internalType": "address",
          "name": "spender",
          "type": "address"
        },
        {
          "indexed": false,
          "internalType": "uint256",
          "name": "value",
          "type": "uint256"
        }
      ],
      "name": "Approval",
      "type": "event"
    },
    {
      "anonymous": false,
      "inputs": [
        {
          "indexed": true,
          "internalType": "bytes32",
          "name": "role",
          "type": "bytes32"
        },
        {
          "indexed": true,
          "internalType": "bytes32",
          "name": "previousAdminRole",
          "type": "bytes32"
        },
        {
          "indexed": true,
          "internalType": "bytes32",
          "name": "newAdminRole",
          "type": "bytes32"
        }
      ],
      "name": "RoleAdminChanged",
      "type": "event"
    },
    {
      "anonymous": false,
      "inputs": [
        {
          "indexed": true,
          "internalType": "bytes32",
          "name": "role",
          "type": "bytes32"
        },
        {
          "indexed": true,
          "internalType": "address",
          "name": "account",
          "type": "address"
        },
        {
          "indexed": true,
          "internalType": "address",
          "name": "sender",
          "type": "address"
        }
      ],
      "name": "RoleGranted",
      "type": "event"
    },
    {
      "anonymous": false,
      "inputs": [
        {
          "indexed": true,
          "internalType": "bytes32",
          "name": "role",
          "type": "bytes32"
        },
        {
          "indexed": true,
          "internalType": "address",
          "name": "account",
          "type": "address"
        },
        {
          "indexed": true,
          "internalType": "address",
          "name": "sender",
          "type": "address"
        }
      ],
      "name": "RoleRevoked",
      "type": "event"
    },
    {
      "anonymous": false,
      "inputs": [
        {
          "indexed": true,
          "internalType": "address",
          "name": "from",
          "type": "address"
        },
        {
          "indexed": true,
          "internalType": "address",
          "name": "to",
          "type": "address"
        },
        {
          "indexed": false,
          "internalType": "uint256",
          "name": "value",
          "type": "uint256"
        }
      ],
      "name": "Transfer",
      "type": "event"
    },
    {
      "inputs": [],
      "name": "ADMIN_ROLE",
      "outputs": [
        {
          "internalType": "bytes32",
          "name": "",
          "type": "bytes32"
        }
      ],
      "stateMutability": "view",
      "type": "function"
    },
    {
      "inputs": [],
      "name": "DEFAULT_ADMIN_ROLE",
      "outputs": [
        {
          "internalType": "bytes32",
          "name": "",
          "type": "bytes32"
        }
      ],
      "stateMutability": "view",
      "type": "function"
    },
    {
      "inputs": [],
      "name": "MINTER_ROLE",
      "outputs": [
        {
          "internalType": "bytes32",
          "name": "",
          "type": "bytes32"
        }
      ],
      "stateMutability": "view",
      "type": "function"
    },
    {
      "inputs": [
        {
          "internalType": "address",
          "name": "account",
          "type": "address"
        }
      ],
      "name": "addAdmin",
      "outputs": [],
      "stateMutability": "nonpayable",
      "type": "function"
    },
    {
      "inputs": [
        {
          "internalType": "address",
          "name": "account",
          "type": "address"
        }
      ],
      "name": "addMinter",
      "outputs": [],
      "stateMutability": "nonpayable",
      "type": "function"
    },
    {
      "inputs": [
        {
          "internalType": "address",
          "name": "owner",
          "type": "address"
        },
        {
          "internalType": "address",
          "name": "spender",
          "type": "address"
        }
      ],
      "name": "allowance",
      "outputs": [
        {
          "internalType": "uint256",
          "name": "",
          "type": "uint256"
        }
      ],
      "stateMutability": "view",
      "type": "function"
    },
    {
      "inputs": [
        {
          "internalType": "address",
          "name": "spender",
          "type": "address"
        },
        {
          "internalType": "uint256",
          "name": "value",
          "type": "uint256"
        }
      ],
      "name": "approve",
      "outputs": [
        {
          "internalType": "bool",
          "name": "",
          "type": "bool"
        }
      ],
      "stateMutability": "nonpayable",
      "type": "function"
    },
    {
      "inputs": [
        {
          "internalType": "address",
          "name": "account",
          "type": "address"
        }
      ],
      "name": "balanceOf",
      "outputs": [
        {
          "internalType": "uint256",
          "name": "",
          "type": "uint256"
        }
      ],
      "stateMutability": "view",
      "type": "function"
    },
    {
      "inputs": [
        {
          "internalType": "address",
          "name": "from",
          "type": "address"
        },
        {
          "internalType": "uint256",
          "name": "amount",
          "type": "uint256"
        }
      ],
      "name": "burn",
      "outputs": [],
      "stateMutability": "nonpayable",
      "type": "function"
    },
    {
      "inputs": [],
      "name": "decimals",
      "outputs": [
        {
          "internalType": "uint8",
          "name": "",
          "type": "uint8"
        }
      ],
      "stateMutability": "view",
      "type": "function"
    },
    {
      "inputs": [
        {
          "internalType": "bytes32",
          "name": "role",
          "type": "bytes32"
        }
      ],
      "name": "getRoleAdmin",
      "outputs": [
        {
          "internalType": "bytes32",
          "name": "",
          "type": "bytes32"
        }
      ],
      "stateMutability": "view",
      "type": "function"
    },
    {
      "inputs": [
        {
          "internalType": "bytes32",
          "name": "role",
          "type": "bytes32"
        },
        {
          "internalType": "address",
          "name": "account",
          "type": "address"
        }
      ],
      "name": "grantRole",
      "outputs": [],
      "stateMutability": "nonpayable",
      "type": "function"
    },
    {
      "inputs": [
        {
          "internalType": "bytes32",
          "name": "role",
          "type": "bytes32"
        },
        {
          "internalType": "address",
          "name": "account",
          "type": "address"
        }
      ],
      "name": "hasRole",
      "outputs": [
        {
          "internalType": "bool",
          "name": "",
          "type": "bool"
        }
      ],
      "stateMutability": "view",
      "type": "function"
    },
    {
      "inputs": [
        {
          "internalType": "address",
          "name": "to",
          "type": "address"
        },
        {
          "internalType": "uint256",
          "name": "amount",
          "type": "uint256"
        }
      ],
      "name": "mint",
      "outputs": [],
      "stateMutability": "nonpayable",
      "type": "function"
    },
    {
      "inputs": [],
      "name": "name",
      "outputs": [
        {
          "internalType": "string",
          "name": "",
          "type": "string"
        }
      ],
      "stateMutability": "view",
      "type": "function"
    },
    {
      "inputs": [
        {
          "internalType": "address",
          "name": "account",
          "type": "address"
        }
      ],
      "name": "removeAdmin",
      "outputs": [],
      "stateMutability": "nonpayable",
      "type": "function"
    },
    {
      "inputs": [
        {
          "internalType": "address",
          "name": "account",
          "type": "address"
        }
      ],
      "name": "removeMinter",
      "outputs": [],
      "stateMutability": "nonpayable",
      "type": "function"
    },
    {
      "inputs": [
        {
          "internalType": "bytes32",
          "name": "role",
          "type": "bytes32"
        },
        {
          "internalType": "address",
          "name": "callerConfirmation",
          "type": "address"
        }
      ],
      "name": "renounceRole",
      "outputs": [],
      "stateMutability": "nonpayable",
      "type": "function"
    },
    {
      "inputs": [
        {
          "internalType": "bytes32",
          "name": "role",
          "type": "bytes32"
        },
        {
          "internalType": "address",
          "name": "account",
          "type": "address"
        }
      ],
      "name": "revokeRole",
      "outputs": [],
      "stateMutability": "nonpayable",
      "type": "function"
    },
    {
      "inputs": [
        {
          "internalType": "bytes4",
          "name": "interfaceId",
          "type": "bytes4"
        }
      ],
      "name": "supportsInterface",
      "outputs": [
        {
          "internalType": "bool",
          "name": "",
          "type": "bool"
        }
      ],
      "stateMutability": "view",
      "type": "function"
    },
    {
      "inputs": [],
      "name": "symbol",
      "outputs": [
        {
          "internalType": "string",
          "name": "",
          "type": "string"
        }
      ],
      "stateMutability": "view",
      "type": "function"
    },
    {
      "inputs": [],
      "name": "totalSupply",
      "outputs": [
        {
          "internalType": "uint256",
          "name": "",
          "type": "uint256"
        }
      ],
      "stateMutability": "view",
      "type": "function"
    },
    {
      "inputs": [
        {
          "internalType": "address",
          "name": "to",
          "type": "address"
        },
        {
          "internalType": "uint256",
          "name": "value",
          "type": "uint256"
        }
      ],
      "name": "transfer",
      "outputs": [
        {
          "internalType": "bool",
          "name": "",
          "type": "bool"
        }
      ],
      "stateMutability": "nonpayable",
      "type": "function"
    },
    {
      "inputs": [
        {
          "internalType": "address",
          "name": "from",
          "type": "address"
        },
        {
          "internalType": "address",
          "name": "to",
          "type": "address"
        },
        {
          "internalType": "uint256",
          "name": "value",
          "type": "uint256"
        }
      ],
      "name": "transferFrom",
      "outputs": [
        {
          "internalType": "bool",
          "name": "",
          "type": "bool"
        }
      ],
      "stateMutability": "nonpayable",
      "type": "function"
    }
  ],
  "bytecode": "0x608060405234801561001057600080fd5b506040518060400160405280600d81526020017f4c656e64696e6720546f6b656e000000000000000000000000000000000000008152506040518060400160405280600581526020017f6455534443000000000000000000000000000000000000000000000000000000815250816003908161008c91906104c7565b50806004908161009c91906104c7565b5050506100cf7fa49807205ce4d355092ef5a8a18f56e8913cf4a201fbe287825b095693c217753361010660201b60201c565b506101007f9f2df0fed2c77648de5860a4cc508cd0818c85b8b8a1ab4ceeef8d981c8956a63361010660201b60201c565b50610599565b6000610118838361020460201b60201c565b6101f95760016005600085815260200190815260200160002060000160008473ffffffffffffffffffffffffffffffffffffffff1673ffffffffffffffffffffffffffffffffffffffff16815260200190815260200160002060006101000a81548160ff02191690831515021790555061019661026f60201b60201c565b73ffffffffffffffffffffffffffffffffffffffff168273ffffffffffffffffffffffffffffffffffffffff16847f2f8788117e7eff1d82e926ec794901d17c78024a50270940304540a733656f0d60405160405180910390a4600190506101fe565b600090505b92915050565b60006005600084815260200190815260200160002060000160008373ffffffffffffffffffffffffffffffffffffffff1673ffffffffffffffffffffffffffffffffffffffff16815260200190815260200160002060009054906101000a900460ff16905092915050565b600033905090565b600081519050919050565b7f4e487b7100000000000000000000000000000000000000000000000000000000600052604160045260246000fd5b7f4e487b7100000000000000000000000000000000000000000000000000000000600052602260045260246000fd5b600060028204905060018216806102f857607f821691505b60208210810361030b5761030a6102b1565b5b50919050565b60008190508160005260206000209050919050565b60006020601f8301049050919050565b600082821b905092915050565b6000600883026103737fffffffffffffffffffffffffffffffffffffffffffffffffffffffffffffffff82610336565b61037d8683610336565b95508019841693508086168417925050509392505050565b6000819050919050565b6000819050919050565b60006103c46103bf6103ba84610395565b61039f565b610395565b9050919050565b6000819050919050565b6103de836103a9565b6103f26103ea826103cb565b848454610343565b825550505050565b600090565b6104076103fa565b6104128184846103d5565b505050565b5b818110156104365761042b6000826103ff565b600181019050610418565b5050565b601f82111561047b5761044c81610311565b61045584610326565b81016020851015610464578190505b61047861047085610326565b830182610417565b50505b505050565b600082821c905092915050565b600061049e60001984600802610480565b1980831691505092915050565b60006104b7838361048d565b9150826002028217905092915050565b6104d082610277565b67ffffffffffffffff8111156104e9576104e8610282565b5b6104f382546102e0565b6104fe82828561043a565b600060209050601f831160018114610531576000841561051f578287015190505b61052985826104ab565b865550610591565b601f19841661053f86610311565b60005b8281101561056757848901518255600182019150602085019450602081019050610542565b868310156105845784890151610580601f89168261048d565b8355505b6001600288020188555050505b505050505050565b611c65806105a86000396000f3fe608060405234801561001057600080fd5b50600436106101585760003560e01c806370480275116100c35780639dc29fac1161007c5780639dc29fac146103d7578063a217fddf146103f3578063a9059cbb14610411578063d539139314610441578063d547741f1461045f578063dd62ed3e1461047b57610158565b8063704802751461030357806370a082311461031f57806375b238fc1461034f57806391d148541461036d57806395d89b411461039d578063983b2d56146103bb57610158565b8063248a9ca311610115578063248a9ca3146102455780632f2ff15d146102755780633092afd514610291578063313ce567146102ad57806336568abe146102cb57806340c10f19146102e757610158565b806301ffc9a71461015d57806306fdde031461018d578063095ea7b3146101ab5780631785f53c146101db57806318160ddd146101f757806323b872dd14610215575b600080fd5b61017760048036038101906101729190611633565b6104ab565b604051610184919061167b565b60405180910390f35b610195610525565b6040516101a29190611726565b60405180910390f35b6101c560048036038101906101c091906117dc565b6105b7565b6040516101d2919061167b565b60405180910390f35b6101f560048036038101906101f0919061181c565b6105da565b005b6101ff610670565b60405161020c9190611858565b60405180910390f35b61022f600480360381019061022a9190611873565b61067a565b60405161023c919061167b565b60405180910390f35b61025f600480360381019061025a91906118fc565b6106a9565b60405161026c9190611938565b60405180910390f35b61028f600480360381019061028a9190611953565b6106c9565b005b6102ab60048036038101906102a6919061181c565b6106eb565b005b6102b5610781565b6040516102c291906119af565b60405180910390f35b6102e560048036038101906102e09190611953565b61078a565b005b61030160048036038101906102fc91906117dc565b610805565b005b61031d6004803603810190610318919061181c565b61087c565b005b6103396004803603810190610334919061181c565b610912565b6040516103469190611858565b60405180910390f35b61035761095a565b6040516103649190611938565b60405180910390f35b61038760048036038101906103829190611953565b61097e565b604051610394919061167b565b60405180910390f35b6103a56109e9565b6040516103b29190611726565b60405180910390f35b6103d560048036038101906103d0919061181c565b610a7b565b005b6103f160048036038101906103ec91906117dc565b610b11565b005b6103fb610b88565b6040516104089190611938565b60405180910390f35b61042b600480360381019061042691906117dc565b610b8f565b604051610438919061167b565b60405180910390f35b610449610bb2565b6040516104569190611938565b60405180910390f35b61047960048036038101906104749190611953565b610bd6565b005b610495600480360381019061049091906119ca565b610bf8565b6040516104a29190611858565b60405180910390f35b60007f7965db0b000000000000000000000000000000000000000000000000000000007bffffffffffffffffffffffffffffffffffffffffffffffffffffffff1916827bffffffffffffffffffffffffffffffffffffffffffffffffffffffff1916148061051e575061051d82610c7f565b5b9050919050565b60606003805461053490611a39565b80601f016020809104026020016040519081016040528092919081815260200182805461056090611a39565b80156105ad5780601f10610582576101008083540402835291602001916105ad565b820191906000526020600020905b81548152906001019060200180831161059057829003601f168201915b5050505050905090565b6000806105c2610ce9565b90506105cf818585610cf1565b600191505092915050565b6106047fa49807205ce4d355092ef5a8a18f56e8913cf4a201fbe287825b095693c217753361097e565b610643576040517f08c379a000000000000000000000000000000000000000000000000000000000815260040161063a90611ab6565b60405180910390fd5b61066d7fa49807205ce4d355092ef5a8a18f56e8913cf4a201fbe287825b095693c2177582610bd6565b50565b6000600254905090565b600080610685610ce9565b9050610692858285610d03565b61069d858585610d98565b60019150509392505050565b600060056000838152602001908152602001600020600101549050919050565b6106d2826106a9565b6106db81610e8c565b6106e58383610ea0565b50505050565b6107157fa49807205ce4d355092ef5a8a18f56e8913cf4a201fbe287825b095693c217753361097e565b610754576040517f08c379a000000000000000000000000000000000000000000000000000000000815260040161074b90611ab6565b60405180910390fd5b61077e7f9f2df0fed2c77648de5860a4cc508cd0818c85b8b8a1ab4ceeef8d981c8956a682610bd6565b50565b60006012905090565b610792610ce9565b73ffffffffffffffffffffffffffffffffffffffff168173ffffffffffffffffffffffffffffffffffffffff16146107f6576040517f6697b23200000000000000000000000000000000000000000000000000000000815260040160405180910390fd5b6108008282610f92565b505050565b61082f7f9f2df0fed2c77648de5860a4cc508cd0818c85b8b8a1ab4ceeef8d981c8956a63361097e565b61086e576040517f08c379a000000000000000000000000000000000000000000000000000000000815260040161086590611b22565b60405180910390fd5b6108788282611085565b5050565b6108a67fa49807205ce4d355092ef5a8a18f56e8913cf4a201fbe287825b095693c217753361097e565b6108e5576040517f08c379a00000000000000000000000000000000000000000000000000000000081526004016108dc90611ab6565b60405180910390fd5b61090f7fa49807205ce4d355092ef5a8a18f56e8913cf4a201fbe287825b095693c21775826106c9565b50565b60008060008373ffffffffffffffffffffffffffffffffffffffff1673ffffffffffffffffffffffffffffffffffffffff168152602001908152602001600020549050919050565b7fa49807205ce4d355092ef5a8a18f56e8913cf4a201fbe287825b095693c2177581565b60006005600084815260200190815260200160002060000160008373ffffffffffffffffffffffffffffffffffffffff1673ffffffffffffffffffffffffffffffffffffffff16815260200190815260200160002060009054906101000a900460ff16905092915050565b6060600480546109f890611a39565b80601f0160208091040260200160405190810160405280929190818152602001828054610a2490611a39565b8015610a715780601f10610a4657610100808354040283529160200191610a71565b820191906000526020600020905b815481529060010190602001808311610a5457829003601f168201915b5050505050905090565b610aa57fa49807205ce4d355092ef5a8a18f56e8913cf4a201fbe287825b095693c217753361097e565b610ae4576040517f08c379a0000000000000000000000000000000000000000000000000000000008152600401610adb90611ab6565b60405180910390fd5b610b0e7f9f2df0fed2c77648de5860a4cc508cd0818c85b8b8a1ab4ceeef8d981c8956a6826106c9565b50565b610b3b7f9f2df0fed2c77648de5860a4cc508cd0818c85b8b8a1ab4ceeef8d981c8956a63361097e565b610b7a576040517f08c379a0000000000000000000000000000000000000000000000000000000008152600401610b7190611b22565b60405180910390fd5b610b848282611107565b5050565b6000801b81565b600080610b9a610ce9565b9050610ba7818585610d98565b600191505092915050565b7f9f2df0fed2c77648de5860a4cc508cd0818c85b8b8a1ab4ceeef8d981c8956a681565b610bdf826106a9565b610be881610e8c565b610bf28383610f92565b50505050565b6000600160008473ffffffffffffffffffffffffffffffffffffffff1673ffffffffffffffffffffffffffffffffffffffff16815260200190815260200160002060008373ffffffffffffffffffffffffffffffffffffffff1673ffffffffffffffffffffffffffffffffffffffff16815260200190815260200160002054905092915050565b60007f01ffc9a7000000000000000000000000000000000000000000000000000000007bffffffffffffffffffffffffffffffffffffffffffffffffffffffff1916827bffffffffffffffffffffffffffffffffffffffffffffffffffffffff1916149050919050565b600033905090565b610cfe8383836001611189565b505050565b6000610d0f8484610bf8565b90507fffffffffffffffffffffffffffffffffffffffffffffffffffffffffffffffff811015610d925781811015610d82578281836040517ffb8f41b2000000000000000000000000000000000000000000000000000000008152600401610d7993929190611b51565b60405180910390fd5b610d9184848484036000611189565b5b50505050565b600073ffffffffffffffffffffffffffffffffffffffff168373ffffffffffffffffffffffffffffffffffffffff1603610e0a5760006040517f96c6fd1e000000000000000000000000000000000000000000000000000000008152600401610e019190611b88565b60405180910390fd5b600073ffffffffffffffffffffffffffffffffffffffff168273ffffffffffffffffffffffffffffffffffffffff1603610e7c5760006040517fec442f05000000000000000000000000000000000000000000000000000000008152600401610e739190611b88565b60405180910390fd5b610e87838383611360565b505050565b610e9d81610e98610ce9565b611585565b50565b6000610eac838361097e565b610f875760016005600085815260200190815260200160002060000160008473ffffffffffffffffffffffffffffffffffffffff1673ffffffffffffffffffffffffffffffffffffffff16815260200190815260200160002060006101000a81548160ff021916908315150217905550610f24610ce9565b73ffffffffffffffffffffffffffffffffffffffff168273ffffffffffffffffffffffffffffffffffffffff16847f2f8788117e7eff1d82e926ec794901d17c78024a50270940304540a733656f0d60405160405180910390a460019050610f8c565b600090505b92915050565b6000610f9e838361097e565b1561107a5760006005600085815260200190815260200160002060000160008473ffffffffffffffffffffffffffffffffffffffff1673ffffffffffffffffffffffffffffffffffffffff16815260200190815260200160002060006101000a81548160ff021916908315150217905550611017610ce9565b73ffffffffffffffffffffffffffffffffffffffff168273ffffffffffffffffffffffffffffffffffffffff16847ff6391f5c32d9c69d2a47ea670b442974b53935d1edc7fd64eb21e047a839171b60405160405180910390a46001905061107f565b600090505b92915050565b600073ffffffffffffffffffffffffffffffffffffffff168273ffffffffffffffffffffffffffffffffffffffff16036110f75760006040517fec442f050000000000000000000000000000000000000000000000000000000081526004016110ee9190611b88565b60405180910390fd5b61110360008383611360565b5050565b600073ffffffffffffffffffffffffffffffffffffffff168273ffffffffffffffffffffffffffffffffffffffff16036111795760006040517f96c6fd1e0000000000000000000000000000000000000000000000000000000081526004016111709190611b88565b60405180910390fd5b61118582600083611360565b5050565b600073ffffffffffffffffffffffffffffffffffffffff168473ffffffffffffffffffffffffffffffffffffffff16036111fb5760006040517fe602df050000000000000000000000000000000000000000000000000000000081526004016111f29190611b88565b60405180910390fd5b600073ffffffffffffffffffffffffffffffffffffffff168373ffffffffffffffffffffffffffffffffffffffff160361126d5760006040517f94280d620000000000000000000000000000000000000000000000000000000081526004016112649190611b88565b60405180910390fd5b81600160008673ffffffffffffffffffffffffffffffffffffffff1673ffffffffffffffffffffffffffffffffffffffff16815260200190815260200160002060008573ffffffffffffffffffffffffffffffffffffffff1673ffffffffffffffffffffffffffffffffffffffff16815260200190815260200160002081905550801561135a578273ffffffffffffffffffffffffffffffffffffffff168473ffffffffffffffffffffffffffffffffffffffff167f8c5be1e5ebec7d5bd14f71427d1e84f3dd0314c0f7b2291e5b200ac8c7c3b925846040516113519190611858565b60405180910390a35b50505050565b600073ffffffffffffffffffffffffffffffffffffffff168373ffffffffffffffffffffffffffffffffffffffff16036113b25780600260008282546113a69190611bd2565b92505081905550611485565b60008060008573ffffffffffffffffffffffffffffffffffffffff1673ffffffffffffffffffffffffffffffffffffffff1681526020019081526020016000205490508181101561143e578381836040517fe450d38c00000000000000000000000000000000000000000000000000000000815260040161143593929190611b51565b60405180910390fd5b8181036000808673ffffffffffffffffffffffffffffffffffffffff1673ffffffffffffffffffffffffffffffffffffffff16815260200190815260200160002081905550505b600073ffffffffffffffffffffffffffffffffffffffff168273ffffffffffffffffffffffffffffffffffffffff16036114ce578060026000828254039250508190555061151b565b806000808473ffffffffffffffffffffffffffffffffffffffff1673ffffffffffffffffffffffffffffffffffffffff168152602001908152602001600020600082825401925050819055505b8173ffffffffffffffffffffffffffffffffffffffff168373ffffffffffffffffffffffffffffffffffffffff167fddf252ad1be2c89b69c2b068fc378daa952ba7f163c4a11628f55a4df523b3ef836040516115789190611858565b60405180910390a3505050565b61158f828261097e565b6115d25780826040517fe2517d3f0000000000000000000000000000000000000000000000000000000081526004016115c9929190611c06565b60405180910390fd5b5050565b600080fd5b60007fffffffff0000000000000000000000000000000000000000000000000000000082169050919050565b611610816115db565b811461161b57600080fd5b50565b60008135905061162d81611607565b92915050565b600060208284031215611649576116486115d6565b5b60006116578482850161161e565b91505092915050565b60008115159050919050565b61167581611660565b82525050565b6000602082019050611690600083018461166c565b92915050565b600081519050919050565b600082825260208201905092915050565b60005b838110156116d05780820151818401526020810190506116b5565b60008484015250505050565b6000601f19601f8301169050919050565b60006116f882611696565b61170281856116a1565b93506117128185602086016116b2565b61171b816116dc565b840191505092915050565b6000602082019050818103600083015261174081846116ed565b905092915050565b600073ffffffffffffffffffffffffffffffffffffffff82169050919050565b600061177382611748565b9050919050565b61178381611768565b811461178e57600080fd5b50565b6000813590506117a08161177a565b92915050565b6000819050919050565b6117b9816117a6565b81146117c457600080fd5b50565b6000813590506117d6816117b0565b92915050565b600080604083850312156117f3576117f26115d6565b5b600061180185828601611791565b9250506020611812858286016117c7565b9150509250929050565b600060208284031215611832576118316115d6565b5b600061184084828501611791565b91505092915050565b611852816117a6565b82525050565b600060208201905061186d6000830184611849565b92915050565b60008060006060848603121561188c5761188b6115d6565b5b600061189a86828701611791565b93505060206118ab86828701611791565b92505060406118bc868287016117c7565b9150509250925092565b6000819050919050565b6118d9816118c6565b81146118e457600080fd5b50565b6000813590506118f6816118d0565b92915050565b600060208284031215611912576119116115d6565b5b6000611920848285016118e7565b91505092915050565b611932816118c6565b82525050565b600060208201905061194d6000830184611929565b92915050565b6000806040838503121561196a576119696115d6565b5b6000611978858286016118e7565b925050602061198985828601611791565b9150509250929050565b600060ff82169050919050565b6119a981611993565b82525050565b60006020820190506119c460008301846119a0565b92915050565b600080604083850312156119e1576119e06115d6565b5b60006119ef85828601611791565b9250506020611a0085828601611791565b9150509250929050565b7f4e487b7100000000000000000000000000000000000000000000000000000000600052602260045260246000fd5b60006002820490506001821680611a5157607f821691505b602082108103611a6457611a63611a0a565b5b50919050565b7f4c546f6b656e3a2063616c6c6572206973206e6f7420616e2061646d696e0000600082015250565b6000611aa0601e836116a1565b9150611aab82611a6a565b602082019050919050565b60006020820190508181036000830152611acf81611a93565b9050919050565b7f4c546f6b656e3a2063616c6c6572206973206e6f742061206d696e7465720000600082015250565b6000611b0c601e836116a1565b9150611b1782611ad6565b602082019050919050565b60006020820190508181036000830152611b3b81611aff565b9050919050565b611b4b81611768565b82525050565b6000606082019050611b666000830186611b42565b611b736020830185611849565b611b806040830184611849565b949350505050565b6000602082019050611b9d6000830184611b42565b92915050565b7f4e487b7100000000000000000000000000000000000000000000000000000000600052601160045260246000fd5b6000611bdd826117a6565b9150611be8836117a6565b9250828201905080821115611c0057611bff611ba3565b5b92915050565b6000604082019050611c1b6000830185611b42565b611c286020830184611929565b939250505056fea2646970667358221220166d582878f244eec37ada45ef9c87735ba61a653239d32dc4fdde7088d683d464736f6c634300081c0033",
  "linkReferences": {},
  "deployedLinkReferences": {}
}