{
  "_format": "hh-sol-artifact-1",
  "contractName": "PriceOracle",
  "sourceName": "contracts/PriceOracle.sol",
  "abi": [
    {
      "inputs": [],
      "stateMutability": "nonpayable",
      "type": "constructor"
    },
    {
      "inputs": [
        {
          "internalType": "address",
          "name": "owner",
          "type": "address"
        }
      ],
      "name": "OwnableInvalidOwner",
      "type": "error"
    },
    {
      "inputs": [
        {
          "internalType": "address",
          "name": "account",
          "type": "address"
        }
      ],
      "name": "OwnableUnauthorizedAccount",
      "type": "error"
    },
    {
      "anonymous": false,
      "inputs": [
        {
          "indexed": true,
          "internalType": "address",
          "name": "asset",
          "type": "address"
        },
        {
          "indexed": true,
          "internalType": "address",
          "name": "aggregator",
          "type": "address"
        }
      ],
      "name": "AggregatorSet",
      "type": "event"
    },
    {
      "anonymous": false,
      "inputs": [
        {
          "indexed": true,
          "internalType": "address",
          "name": "previousOwner",
          "type": "address"
        },
        {
          "indexed": true,
          "internalType": "address",
          "name": "newOwner",
          "type": "address"
        }
      ],
      "name": "OwnershipTransferred",
      "type": "event"
    },
    {
      "inputs": [
        {
          "internalType": "address",
          "name": "",
          "type": "address"
        }
      ],
      "name": "aggregators",
      "outputs": [
        {
          "internalType": "address",
          "name": "",
          "type": "address"
        }
      ],
      "stateMutability": "view",
      "type": "function"
    },
    {
      "inputs": [
        {
          "internalType": "address",
          "name": "asset",
          "type": "address"
        }
      ],
      "name": "getAggregator",
      "outputs": [
        {
          "internalType": "address",
          "name": "",
          "type": "address"
        }
      ],
      "stateMutability": "view",
      "type": "function"
    },
    {
      "inputs": [
        {
          "internalType": "address",
          "name": "asset",
          "type": "address"
        }
      ],
      "name": "getAggregatorDecimals",
      "outputs": [
        {
          "internalType": "uint8",
          "name": "",
          "type": "uint8"
        }
      ],
      "stateMutability": "view",
      "type": "function"
    },
    {
      "inputs": [
        {
          "internalType": "address",
          "name": "asset",
          "type": "address"
        }
      ],
      "name": "getPrice",
      "outputs": [
        {
          "internalType": "uint256",
          "name": "price",
          "type": "uint256"
        }
      ],
      "stateMutability": "view",
      "type": "function"
    },
    {
      "inputs": [
        {
          "internalType": "address",
          "name": "asset",
          "type": "address"
        }
      ],
      "name": "getRawPrice",
      "outputs": [
        {
          "internalType": "int256",
          "name": "price",
          "type": "int256"
        }
      ],
      "stateMutability": "view",
      "type": "function"
    },
    {
      "inputs": [],
      "name": "owner",
      "outputs": [
        {
          "internalType": "address",
          "name": "",
          "type": "address"
        }
      ],
      "stateMutability": "view",
      "type": "function"
    },
    {
      "inputs": [],
      "name": "renounceOwnership",
      "outputs": [],
      "stateMutability": "nonpayable",
      "type": "function"
    },
    {
      "inputs": [
        {
          "internalType": "address",
          "name": "asset",
          "type": "address"
        },
        {
          "internalType": "address",
          "name": "aggregator",
          "type": "address"
        }
      ],
      "name": "setAggregator",
      "outputs": [],
      "stateMutability": "nonpayable",
      "type": "function"
    },
    {
      "inputs": [
        {
          "internalType": "address",
          "name": "newOwner",
          "type": "address"
        }
      ],
      "name": "transferOwnership",
      "outputs": [],
      "stateMutability": "nonpayable",
      "type": "function"
    }
  ],
  "bytecode": "0x608060405234801561001057600080fd5b5033600073ffffffffffffffffffffffffffffffffffffffff168173ffffffffffffffffffffffffffffffffffffffff16036100845760006040517f1e4fbdf700000000000000000000000000000000000000000000000000000000815260040161007b919061019e565b60405180910390fd5b6100938161009960201b60201c565b506101b9565b60008060009054906101000a900473ffffffffffffffffffffffffffffffffffffffff169050816000806101000a81548173ffffffffffffffffffffffffffffffffffffffff021916908373ffffffffffffffffffffffffffffffffffffffff1602179055508173ffffffffffffffffffffffffffffffffffffffff168173ffffffffffffffffffffffffffffffffffffffff167f8be0079c531659141344cd1fd0a4f28419497f9722a3daafe3b4186f6b6457e060405160405180910390a35050565b600073ffffffffffffffffffffffffffffffffffffffff82169050919050565b60006101888261015d565b9050919050565b6101988161017d565b82525050565b60006020820190506101b3600083018461018f565b92915050565b611364806101c86000396000f3fe608060405234801561001057600080fd5b50600436106100935760003560e01c8063715018a611610066578063715018a6146101585780637394a7f6146101625780638da5cb5b1461017e578063b1055baf1461019c578063f2fde38b146101cc57610093565b8063112cdab91461009857806329a42d56146100c857806334ba8730146100f857806341976e0914610128575b600080fd5b6100b260048036038101906100ad9190610c39565b6101e8565b6040516100bf9190610c75565b60405180910390f35b6100e260048036038101906100dd9190610c39565b61021b565b6040516100ef9190610c75565b60405180910390f35b610112600480360381019061010d9190610c39565b610284565b60405161011f9190610cac565b60405180910390f35b610142600480360381019061013d9190610c39565b6103cf565b60405161014f9190610ce0565b60405180910390f35b610160610666565b005b61017c60048036038101906101779190610cfb565b61067a565b005b61018661083c565b6040516101939190610c75565b60405180910390f35b6101b660048036038101906101b19190610c39565b610865565b6040516101c39190610d54565b60405180910390f35b6101e660048036038101906101e19190610c39565b6109fd565b005b60016020528060005260406000206000915054906101000a900473ffffffffffffffffffffffffffffffffffffffff1681565b6000600160008373ffffffffffffffffffffffffffffffffffffffff1673ffffffffffffffffffffffffffffffffffffffff16815260200190815260200160002060009054906101000a900473ffffffffffffffffffffffffffffffffffffffff169050919050565b600080600160008473ffffffffffffffffffffffffffffffffffffffff1673ffffffffffffffffffffffffffffffffffffffff16815260200190815260200160002060009054906101000a900473ffffffffffffffffffffffffffffffffffffffff169050600073ffffffffffffffffffffffffffffffffffffffff168173ffffffffffffffffffffffffffffffffffffffff1603610358576040517f08c379a000000000000000000000000000000000000000000000000000000000815260040161034f90610dcc565b60405180910390fd5b8073ffffffffffffffffffffffffffffffffffffffff1663313ce5676040518163ffffffff1660e01b8152600401602060405180830381865afa1580156103a3573d6000803e3d6000fd5b505050506040513d601f19601f820116820180604052508101906103c79190610e18565b915050919050565b600080600160008473ffffffffffffffffffffffffffffffffffffffff1673ffffffffffffffffffffffffffffffffffffffff16815260200190815260200160002060009054906101000a900473ffffffffffffffffffffffffffffffffffffffff169050600073ffffffffffffffffffffffffffffffffffffffff168173ffffffffffffffffffffffffffffffffffffffff16036104a3576040517f08c379a000000000000000000000000000000000000000000000000000000000815260040161049a90610dcc565b60405180910390fd5b600081905060008060008373ffffffffffffffffffffffffffffffffffffffff1663feaf968c6040518163ffffffff1660e01b815260040160a060405180830381865afa1580156104f8573d6000803e3d6000fd5b505050506040513d601f19601f8201168201806040525081019061051c9190610edf565b945094505093505060008313610567576040517f08c379a000000000000000000000000000000000000000000000000000000000815260040161055e90610fa6565b60405180910390fd5b600082118015610583575060008169ffffffffffffffffffff16115b6105c2576040517f08c379a00000000000000000000000000000000000000000000000000000000081526004016105b990611012565b60405180910390fd5b60008473ffffffffffffffffffffffffffffffffffffffff1663313ce5676040518163ffffffff1660e01b8152600401602060405180830381865afa15801561060f573d6000803e3d6000fd5b505050506040513d601f19601f820116820180604052508101906106339190610e18565b90508060126106429190611061565b600a61064e91906111c9565b846106599190611214565b9650505050505050919050565b61066e610a83565b6106786000610b0a565b565b610682610a83565b600073ffffffffffffffffffffffffffffffffffffffff168273ffffffffffffffffffffffffffffffffffffffff16036106f1576040517f08c379a00000000000000000000000000000000000000000000000000000000081526004016106e8906112a2565b60405180910390fd5b600073ffffffffffffffffffffffffffffffffffffffff168173ffffffffffffffffffffffffffffffffffffffff1603610760576040517f08c379a00000000000000000000000000000000000000000000000000000000081526004016107579061130e565b60405180910390fd5b80600160008473ffffffffffffffffffffffffffffffffffffffff1673ffffffffffffffffffffffffffffffffffffffff16815260200190815260200160002060006101000a81548173ffffffffffffffffffffffffffffffffffffffff021916908373ffffffffffffffffffffffffffffffffffffffff1602179055508073ffffffffffffffffffffffffffffffffffffffff168273ffffffffffffffffffffffffffffffffffffffff167f84e1bba7d2e21dccf1934a4188807abc546c4632d794d2c097bfc4f599230cac60405160405180910390a35050565b60008060009054906101000a900473ffffffffffffffffffffffffffffffffffffffff16905090565b600080600160008473ffffffffffffffffffffffffffffffffffffffff1673ffffffffffffffffffffffffffffffffffffffff16815260200190815260200160002060009054906101000a900473ffffffffffffffffffffffffffffffffffffffff169050600073ffffffffffffffffffffffffffffffffffffffff168173ffffffffffffffffffffffffffffffffffffffff1603610939576040517f08c379a000000000000000000000000000000000000000000000000000000000815260040161093090610dcc565b60405180910390fd5b60008173ffffffffffffffffffffffffffffffffffffffff1663feaf968c6040518163ffffffff1660e01b815260040160a060405180830381865afa158015610986573d6000803e3d6000fd5b505050506040513d601f19601f820116820180604052508101906109aa9190610edf565b505050915050600081136109f3576040517f08c379a00000000000000000000000000000000000000000000000000000000081526004016109ea90610fa6565b60405180910390fd5b8092505050919050565b610a05610a83565b600073ffffffffffffffffffffffffffffffffffffffff168173ffffffffffffffffffffffffffffffffffffffff1603610a775760006040517f1e4fbdf7000000000000000000000000000000000000000000000000000000008152600401610a6e9190610c75565b60405180910390fd5b610a8081610b0a565b50565b610a8b610bce565b73ffffffffffffffffffffffffffffffffffffffff16610aa961083c565b73ffffffffffffffffffffffffffffffffffffffff1614610b0857610acc610bce565b6040517f118cdaa7000000000000000000000000000000000000000000000000000000008152600401610aff9190610c75565b60405180910390fd5b565b60008060009054906101000a900473ffffffffffffffffffffffffffffffffffffffff169050816000806101000a81548173ffffffffffffffffffffffffffffffffffffffff021916908373ffffffffffffffffffffffffffffffffffffffff1602179055508173ffffffffffffffffffffffffffffffffffffffff168173ffffffffffffffffffffffffffffffffffffffff167f8be0079c531659141344cd1fd0a4f28419497f9722a3daafe3b4186f6b6457e060405160405180910390a35050565b600033905090565b600080fd5b600073ffffffffffffffffffffffffffffffffffffffff82169050919050565b6000610c0682610bdb565b9050919050565b610c1681610bfb565b8114610c2157600080fd5b50565b600081359050610c3381610c0d565b92915050565b600060208284031215610c4f57610c4e610bd6565b5b6000610c5d84828501610c24565b91505092915050565b610c6f81610bfb565b82525050565b6000602082019050610c8a6000830184610c66565b92915050565b600060ff82169050919050565b610ca681610c90565b82525050565b6000602082019050610cc16000830184610c9d565b92915050565b6000819050919050565b610cda81610cc7565b82525050565b6000602082019050610cf56000830184610cd1565b92915050565b60008060408385031215610d1257610d11610bd6565b5b6000610d2085828601610c24565b9250506020610d3185828601610c24565b9150509250929050565b6000819050919050565b610d4e81610d3b565b82525050565b6000602082019050610d696000830184610d45565b92915050565b600082825260208201905092915050565b7f41676772656761746f72206e6f74207365740000000000000000000000000000600082015250565b6000610db6601283610d6f565b9150610dc182610d80565b602082019050919050565b60006020820190508181036000830152610de581610da9565b9050919050565b610df581610c90565b8114610e0057600080fd5b50565b600081519050610e1281610dec565b92915050565b600060208284031215610e2e57610e2d610bd6565b5b6000610e3c84828501610e03565b91505092915050565b600069ffffffffffffffffffff82169050919050565b610e6481610e45565b8114610e6f57600080fd5b50565b600081519050610e8181610e5b565b92915050565b610e9081610d3b565b8114610e9b57600080fd5b50565b600081519050610ead81610e87565b92915050565b610ebc81610cc7565b8114610ec757600080fd5b50565b600081519050610ed981610eb3565b92915050565b600080600080600060a08688031215610efb57610efa610bd6565b5b6000610f0988828901610e72565b9550506020610f1a88828901610e9e565b9450506040610f2b88828901610eca565b9350506060610f3c88828901610eca565b9250506080610f4d88828901610e72565b9150509295509295909350565b7f496e76616c696420707269636500000000000000000000000000000000000000600082015250565b6000610f90600d83610d6f565b9150610f9b82610f5a565b602082019050919050565b60006020820190508181036000830152610fbf81610f83565b9050919050565b7f5374616c65207072696365206665656400000000000000000000000000000000600082015250565b6000610ffc601083610d6f565b915061100782610fc6565b602082019050919050565b6000602082019050818103600083015261102b81610fef565b9050919050565b7f4e487b7100000000000000000000000000000000000000000000000000000000600052601160045260246000fd5b600061106c82610c90565b915061107783610c90565b9250828203905060ff8111156110905761108f611032565b5b92915050565b60008160011c9050919050565b6000808291508390505b60018511156110ed578086048111156110c9576110c8611032565b5b60018516156110d85780820291505b80810290506110e685611096565b94506110ad565b94509492505050565b60008261110657600190506111c2565b8161111457600090506111c2565b816001811461112a576002811461113457611163565b60019150506111c2565b60ff84111561114657611145611032565b5b8360020a91508482111561115d5761115c611032565b5b506111c2565b5060208310610133831016604e8410600b84101617156111985782820a90508381111561119357611192611032565b5b6111c2565b6111a584848460016110a3565b925090508184048111156111bc576111bb611032565b5b81810290505b9392505050565b60006111d482610cc7565b91506111df83610c90565b925061120c7fffffffffffffffffffffffffffffffffffffffffffffffffffffffffffffffff84846110f6565b905092915050565b600061121f82610cc7565b915061122a83610cc7565b925082820261123881610cc7565b9150828204841483151761124f5761124e611032565b5b5092915050565b7f496e76616c696420617373657420616464726573730000000000000000000000600082015250565b600061128c601583610d6f565b915061129782611256565b602082019050919050565b600060208201905081810360008301526112bb8161127f565b9050919050565b7f496e76616c69642061676772656761746f722061646472657373000000000000600082015250565b60006112f8601a83610d6f565b9150611303826112c2565b602082019050919050565b60006020820190508181036000830152611327816112eb565b905091905056fea26469706673582212205d228df6b14dc3730081dde3707b6fa5f51e9595dd2f8657a915615a192192f764736f6c634300081c0033",
  "linkReferences": {},
  "deployedLinkReferences": {}
}