{
  "_format": "hh-sol-artifact-1",
  "contractName": "QBDToken",
  "sourceName": "contracts/QBDToken.sol",
  "abi": [
    {
      "inputs": [],
      "stateMutability": "nonpayable",
      "type": "constructor"
    },
    {
      "inputs": [],
      "name": "AccessControlBadConfirmation",
      "type": "error"
    },
    {
      "inputs": [
        {
          "internalType": "address",
          "name": "account",
          "type": "address"
        },
        {
          "internalType": "bytes32",
          "name": "neededRole",
          "type": "bytes32"
        }
      ],
      "name": "AccessControlUnauthorizedAccount",
      "type": "error"
    },
    {
      "inputs": [
        {
          "internalType": "address",
          "name": "spender",
          "type": "address"
        },
        {
          "internalType": "uint256",
          "name": "allowance",
          "type": "uint256"
        },
        {
          "internalType": "uint256",
          "name": "needed",
          "type": "uint256"
        }
      ],
      "name": "ERC20InsufficientAllowance",
      "type": "error"
    },
    {
      "inputs": [
        {
          "internalType": "address",
          "name": "sender",
          "type": "address"
        },
        {
          "internalType": "uint256",
          "name": "balance",
          "type": "uint256"
        },
        {
          "internalType": "uint256",
          "name": "needed",
          "type": "uint256"
        }
      ],
      "name": "ERC20InsufficientBalance",
      "type": "error"
    },
    {
      "inputs": [
        {
          "internalType": "address",
          "name": "approver",
          "type": "address"
        }
      ],
      "name": "ERC20InvalidApprover",
      "type": "error"
    },
    {
      "inputs": [
        {
          "internalType": "address",
          "name": "receiver",
          "type": "address"
        }
      ],
      "name": "ERC20InvalidReceiver",
      "type": "error"
    },
    {
      "inputs": [
        {
          "internalType": "address",
          "name": "sender",
          "type": "address"
        }
      ],
      "name": "ERC20InvalidSender",
      "type": "error"
    },
    {
      "inputs": [
        {
          "internalType": "address",
          "name": "spender",
          "type": "address"
        }
      ],
      "name": "ERC20InvalidSpender",
      "type": "error"
    },
    {
      "anonymous": false,
      "inputs": [
        {
          "indexed": true,
          "internalType": "address",
          "name": "owner",
          "type": "address"
        },
        {
          "indexed": true,
          "internalType": "address",
          "name": "spender",
          "type": "address"
        },
        {
          "indexed": false,
          "internalType": "uint256",
          "name": "value",
          "type": "uint256"
        }
      ],
      "name": "Approval",
      "type": "event"
    },
    {
      "anonymous": false,
      "inputs": [
        {
          "indexed": true,
          "internalType": "bytes32",
          "name": "role",
          "type": "bytes32"
        },
        {
          "indexed": true,
          "internalType": "bytes32",
          "name": "previousAdminRole",
          "type": "bytes32"
        },
        {
          "indexed": true,
          "internalType": "bytes32",
          "name": "newAdminRole",
          "type": "bytes32"
        }
      ],
      "name": "RoleAdminChanged",
      "type": "event"
    },
    {
      "anonymous": false,
      "inputs": [
        {
          "indexed": true,
          "internalType": "bytes32",
          "name": "role",
          "type": "bytes32"
        },
        {
          "indexed": true,
          "internalType": "address",
          "name": "account",
          "type": "address"
        },
        {
          "indexed": true,
          "internalType": "address",
          "name": "sender",
          "type": "address"
        }
      ],
      "name": "RoleGranted",
      "type": "event"
    },
    {
      "anonymous": false,
      "inputs": [
        {
          "indexed": true,
          "internalType": "bytes32",
          "name": "role",
          "type": "bytes32"
        },
        {
          "indexed": true,
          "internalType": "address",
          "name": "account",
          "type": "address"
        },
        {
          "indexed": true,
          "internalType": "address",
          "name": "sender",
          "type": "address"
        }
      ],
      "name": "RoleRevoked",
      "type": "event"
    },
    {
      "anonymous": false,
      "inputs": [
        {
          "indexed": true,
          "internalType": "address",
          "name": "from",
          "type": "address"
        },
        {
          "indexed": true,
          "internalType": "address",
          "name": "to",
          "type": "address"
        },
        {
          "indexed": false,
          "internalType": "uint256",
          "name": "value",
          "type": "uint256"
        }
      ],
      "name": "Transfer",
      "type": "event"
    },
    {
      "inputs": [],
      "name": "ADMIN_ROLE",
      "outputs": [
        {
          "internalType": "bytes32",
          "name": "",
          "type": "bytes32"
        }
      ],
      "stateMutability": "view",
      "type": "function"
    },
    {
      "inputs": [],
      "name": "DEFAULT_ADMIN_ROLE",
      "outputs": [
        {
          "internalType": "bytes32",
          "name": "",
          "type": "bytes32"
        }
      ],
      "stateMutability": "view",
      "type": "function"
    },
    {
      "inputs": [],
      "name": "MINTER_ROLE",
      "outputs": [
        {
          "internalType": "bytes32",
          "name": "",
          "type": "bytes32"
        }
      ],
      "stateMutability": "view",
      "type": "function"
    },
    {
      "inputs": [
        {
          "internalType": "address",
          "name": "account",
          "type": "address"
        }
      ],
      "name": "addAdmin",
      "outputs": [],
      "stateMutability": "nonpayable",
      "type": "function"
    },
    {
      "inputs": [
        {
          "internalType": "address",
          "name": "account",
          "type": "address"
        }
      ],
      "name": "addMinter",
      "outputs": [],
      "stateMutability": "nonpayable",
      "type": "function"
    },
    {
      "inputs": [
        {
          "internalType": "address",
          "name": "owner",
          "type": "address"
        },
        {
          "internalType": "address",
          "name": "spender",
          "type": "address"
        }
      ],
      "name": "allowance",
      "outputs": [
        {
          "internalType": "uint256",
          "name": "",
          "type": "uint256"
        }
      ],
      "stateMutability": "view",
      "type": "function"
    },
    {
      "inputs": [
        {
          "internalType": "address",
          "name": "spender",
          "type": "address"
        },
        {
          "internalType": "uint256",
          "name": "value",
          "type": "uint256"
        }
      ],
      "name": "approve",
      "outputs": [
        {
          "internalType": "bool",
          "name": "",
          "type": "bool"
        }
      ],
      "stateMutability": "nonpayable",
      "type": "function"
    },
    {
      "inputs": [
        {
          "internalType": "address",
          "name": "account",
          "type": "address"
        }
      ],
      "name": "balanceOf",
      "outputs": [
        {
          "internalType": "uint256",
          "name": "",
          "type": "uint256"
        }
      ],
      "stateMutability": "view",
      "type": "function"
    },
    {
      "inputs": [],
      "name": "decimals",
      "outputs": [
        {
          "internalType": "uint8",
          "name": "",
          "type": "uint8"
        }
      ],
      "stateMutability": "view",
      "type": "function"
    },
    {
      "inputs": [
        {
          "internalType": "bytes32",
          "name": "role",
          "type": "bytes32"
        }
      ],
      "name": "getRoleAdmin",
      "outputs": [
        {
          "internalType": "bytes32",
          "name": "",
          "type": "bytes32"
        }
      ],
      "stateMutability": "view",
      "type": "function"
    },
    {
      "inputs": [
        {
          "internalType": "bytes32",
          "name": "role",
          "type": "bytes32"
        },
        {
          "internalType": "address",
          "name": "account",
          "type": "address"
        }
      ],
      "name": "grantRole",
      "outputs": [],
      "stateMutability": "nonpayable",
      "type": "function"
    },
    {
      "inputs": [
        {
          "internalType": "bytes32",
          "name": "role",
          "type": "bytes32"
        },
        {
          "internalType": "address",
          "name": "account",
          "type": "address"
        }
      ],
      "name": "hasRole",
      "outputs": [
        {
          "internalType": "bool",
          "name": "",
          "type": "bool"
        }
      ],
      "stateMutability": "view",
      "type": "function"
    },
    {
      "inputs": [
        {
          "internalType": "address",
          "name": "to",
          "type": "address"
        },
        {
          "internalType": "uint256",
          "name": "amount",
          "type": "uint256"
        }
      ],
      "name": "mint",
      "outputs": [],
      "stateMutability": "nonpayable",
      "type": "function"
    },
    {
      "inputs": [],
      "name": "name",
      "outputs": [
        {
          "internalType": "string",
          "name": "",
          "type": "string"
        }
      ],
      "stateMutability": "view",
      "type": "function"
    },
    {
      "inputs": [
        {
          "internalType": "address",
          "name": "account",
          "type": "address"
        }
      ],
      "name": "removeAdmin",
      "outputs": [],
      "stateMutability": "nonpayable",
      "type": "function"
    },
    {
      "inputs": [
        {
          "internalType": "address",
          "name": "account",
          "type": "address"
        }
      ],
      "name": "removeMinter",
      "outputs": [],
      "stateMutability": "nonpayable",
      "type": "function"
    },
    {
      "inputs": [
        {
          "internalType": "bytes32",
          "name": "role",
          "type": "bytes32"
        },
        {
          "internalType": "address",
          "name": "callerConfirmation",
          "type": "address"
        }
      ],
      "name": "renounceRole",
      "outputs": [],
      "stateMutability": "nonpayable",
      "type": "function"
    },
    {
      "inputs": [
        {
          "internalType": "bytes32",
          "name": "role",
          "type": "bytes32"
        },
        {
          "internalType": "address",
          "name": "account",
          "type": "address"
        }
      ],
      "name": "revokeRole",
      "outputs": [],
      "stateMutability": "nonpayable",
      "type": "function"
    },
    {
      "inputs": [
        {
          "internalType": "bytes4",
          "name": "interfaceId",
          "type": "bytes4"
        }
      ],
      "name": "supportsInterface",
      "outputs": [
        {
          "internalType": "bool",
          "name": "",
          "type": "bool"
        }
      ],
      "stateMutability": "view",
      "type": "function"
    },
    {
      "inputs": [],
      "name": "symbol",
      "outputs": [
        {
          "internalType": "string",
          "name": "",
          "type": "string"
        }
      ],
      "stateMutability": "view",
      "type": "function"
    },
    {
      "inputs": [],
      "name": "totalSupply",
      "outputs": [
        {
          "internalType": "uint256",
          "name": "",
          "type": "uint256"
        }
      ],
      "stateMutability": "view",
      "type": "function"
    },
    {
      "inputs": [
        {
          "internalType": "address",
          "name": "to",
          "type": "address"
        },
        {
          "internalType": "uint256",
          "name": "value",
          "type": "uint256"
        }
      ],
      "name": "transfer",
      "outputs": [
        {
          "internalType": "bool",
          "name": "",
          "type": "bool"
        }
      ],
      "stateMutability": "nonpayable",
      "type": "function"
    },
    {
      "inputs": [
        {
          "internalType": "address",
          "name": "from",
          "type": "address"
        },
        {
          "internalType": "address",
          "name": "to",
          "type": "address"
        },
        {
          "internalType": "uint256",
          "name": "value",
          "type": "uint256"
        }
      ],
      "name": "transferFrom",
      "outputs": [
        {
          "internalType": "bool",
          "name": "",
          "type": "bool"
        }
      ],
      "stateMutability": "nonpayable",
      "type": "function"
    }
  ],
  "bytecode": "0x608060405234801561001057600080fd5b506040518060400160405280600981526020017f51424420546f6b656e00000000000000000000000000000000000000000000008152506040518060400160405280600381526020017f5142440000000000000000000000000000000000000000000000000000000000815250816003908161008c91906104c7565b50806004908161009c91906104c7565b5050506100cf7fa49807205ce4d355092ef5a8a18f56e8913cf4a201fbe287825b095693c217753361010660201b60201c565b506101007f9f2df0fed2c77648de5860a4cc508cd0818c85b8b8a1ab4ceeef8d981c8956a63361010660201b60201c565b50610599565b6000610118838361020460201b60201c565b6101f95760016005600085815260200190815260200160002060000160008473ffffffffffffffffffffffffffffffffffffffff1673ffffffffffffffffffffffffffffffffffffffff16815260200190815260200160002060006101000a81548160ff02191690831515021790555061019661026f60201b60201c565b73ffffffffffffffffffffffffffffffffffffffff168273ffffffffffffffffffffffffffffffffffffffff16847f2f8788117e7eff1d82e926ec794901d17c78024a50270940304540a733656f0d60405160405180910390a4600190506101fe565b600090505b92915050565b60006005600084815260200190815260200160002060000160008373ffffffffffffffffffffffffffffffffffffffff1673ffffffffffffffffffffffffffffffffffffffff16815260200190815260200160002060009054906101000a900460ff16905092915050565b600033905090565b600081519050919050565b7f4e487b7100000000000000000000000000000000000000000000000000000000600052604160045260246000fd5b7f4e487b7100000000000000000000000000000000000000000000000000000000600052602260045260246000fd5b600060028204905060018216806102f857607f821691505b60208210810361030b5761030a6102b1565b5b50919050565b60008190508160005260206000209050919050565b60006020601f8301049050919050565b600082821b905092915050565b6000600883026103737fffffffffffffffffffffffffffffffffffffffffffffffffffffffffffffffff82610336565b61037d8683610336565b95508019841693508086168417925050509392505050565b6000819050919050565b6000819050919050565b60006103c46103bf6103ba84610395565b61039f565b610395565b9050919050565b6000819050919050565b6103de836103a9565b6103f26103ea826103cb565b848454610343565b825550505050565b600090565b6104076103fa565b6104128184846103d5565b505050565b5b818110156104365761042b6000826103ff565b600181019050610418565b5050565b601f82111561047b5761044c81610311565b61045584610326565b81016020851015610464578190505b61047861047085610326565b830182610417565b50505b505050565b600082821c905092915050565b600061049e60001984600802610480565b1980831691505092915050565b60006104b7838361048d565b9150826002028217905092915050565b6104d082610277565b67ffffffffffffffff8111156104e9576104e8610282565b5b6104f382546102e0565b6104fe82828561043a565b600060209050601f831160018114610531576000841561051f578287015190505b61052985826104ab565b865550610591565b601f19841661053f86610311565b60005b8281101561056757848901518255600182019150602085019450602081019050610542565b868310156105845784890151610580601f89168261048d565b8355505b6001600288020188555050505b505050505050565b611b45806105a86000396000f3fe608060405234801561001057600080fd5b506004361061014d5760003560e01c806340c10f19116100c3578063983b2d561161007c578063983b2d56146103b0578063a217fddf146103cc578063a9059cbb146103ea578063d53913931461041a578063d547741f14610438578063dd62ed3e146104545761014d565b806340c10f19146102dc57806370480275146102f857806370a082311461031457806375b238fc1461034457806391d148541461036257806395d89b41146103925761014d565b806323b872dd1161011557806323b872dd1461020a578063248a9ca31461023a5780632f2ff15d1461026a5780633092afd514610286578063313ce567146102a257806336568abe146102c05761014d565b806301ffc9a71461015257806306fdde0314610182578063095ea7b3146101a05780631785f53c146101d057806318160ddd146101ec575b600080fd5b61016c60048036038101906101679190611513565b610484565b604051610179919061155b565b60405180910390f35b61018a6104fe565b6040516101979190611606565b60405180910390f35b6101ba60048036038101906101b591906116bc565b610590565b6040516101c7919061155b565b60405180910390f35b6101ea60048036038101906101e591906116fc565b6105b3565b005b6101f4610649565b6040516102019190611738565b60405180910390f35b610224600480360381019061021f9190611753565b610653565b604051610231919061155b565b60405180910390f35b610254600480360381019061024f91906117dc565b610682565b6040516102619190611818565b60405180910390f35b610284600480360381019061027f9190611833565b6106a2565b005b6102a0600480360381019061029b91906116fc565b6106c4565b005b6102aa61075a565b6040516102b7919061188f565b60405180910390f35b6102da60048036038101906102d59190611833565b610763565b005b6102f660048036038101906102f191906116bc565b6107de565b005b610312600480360381019061030d91906116fc565b610855565b005b61032e600480360381019061032991906116fc565b6108eb565b60405161033b9190611738565b60405180910390f35b61034c610933565b6040516103599190611818565b60405180910390f35b61037c60048036038101906103779190611833565b610957565b604051610389919061155b565b60405180910390f35b61039a6109c2565b6040516103a79190611606565b60405180910390f35b6103ca60048036038101906103c591906116fc565b610a54565b005b6103d4610aea565b6040516103e19190611818565b60405180910390f35b61040460048036038101906103ff91906116bc565b610af1565b604051610411919061155b565b60405180910390f35b610422610b14565b60405161042f9190611818565b60405180910390f35b610452600480360381019061044d9190611833565b610b38565b005b61046e600480360381019061046991906118aa565b610b5a565b60405161047b9190611738565b60405180910390f35b60007f7965db0b000000000000000000000000000000000000000000000000000000007bffffffffffffffffffffffffffffffffffffffffffffffffffffffff1916827bffffffffffffffffffffffffffffffffffffffffffffffffffffffff191614806104f757506104f682610be1565b5b9050919050565b60606003805461050d90611919565b80601f016020809104026020016040519081016040528092919081815260200182805461053990611919565b80156105865780601f1061055b57610100808354040283529160200191610586565b820191906000526020600020905b81548152906001019060200180831161056957829003601f168201915b5050505050905090565b60008061059b610c4b565b90506105a8818585610c53565b600191505092915050565b6105dd7fa49807205ce4d355092ef5a8a18f56e8913cf4a201fbe287825b095693c2177533610957565b61061c576040517f08c379a000000000000000000000000000000000000000000000000000000000815260040161061390611996565b60405180910390fd5b6106467fa49807205ce4d355092ef5a8a18f56e8913cf4a201fbe287825b095693c2177582610b38565b50565b6000600254905090565b60008061065e610c4b565b905061066b858285610c65565b610676858585610cfa565b60019150509392505050565b600060056000838152602001908152602001600020600101549050919050565b6106ab82610682565b6106b481610dee565b6106be8383610e02565b50505050565b6106ee7fa49807205ce4d355092ef5a8a18f56e8913cf4a201fbe287825b095693c2177533610957565b61072d576040517f08c379a000000000000000000000000000000000000000000000000000000000815260040161072490611996565b60405180910390fd5b6107577f9f2df0fed2c77648de5860a4cc508cd0818c85b8b8a1ab4ceeef8d981c8956a682610b38565b50565b60006012905090565b61076b610c4b565b73ffffffffffffffffffffffffffffffffffffffff168173ffffffffffffffffffffffffffffffffffffffff16146107cf576040517f6697b23200000000000000000000000000000000000000000000000000000000815260040160405180910390fd5b6107d98282610ef4565b505050565b6108087f9f2df0fed2c77648de5860a4cc508cd0818c85b8b8a1ab4ceeef8d981c8956a633610957565b610847576040517f08c379a000000000000000000000000000000000000000000000000000000000815260040161083e90611a02565b60405180910390fd5b6108518282610fe7565b5050565b61087f7fa49807205ce4d355092ef5a8a18f56e8913cf4a201fbe287825b095693c2177533610957565b6108be576040517f08c379a00000000000000000000000000000000000000000000000000000000081526004016108b590611996565b60405180910390fd5b6108e87fa49807205ce4d355092ef5a8a18f56e8913cf4a201fbe287825b095693c21775826106a2565b50565b60008060008373ffffffffffffffffffffffffffffffffffffffff1673ffffffffffffffffffffffffffffffffffffffff168152602001908152602001600020549050919050565b7fa49807205ce4d355092ef5a8a18f56e8913cf4a201fbe287825b095693c2177581565b60006005600084815260200190815260200160002060000160008373ffffffffffffffffffffffffffffffffffffffff1673ffffffffffffffffffffffffffffffffffffffff16815260200190815260200160002060009054906101000a900460ff16905092915050565b6060600480546109d190611919565b80601f01602080910402602001604051908101604052809291908181526020018280546109fd90611919565b8015610a4a5780601f10610a1f57610100808354040283529160200191610a4a565b820191906000526020600020905b815481529060010190602001808311610a2d57829003601f168201915b5050505050905090565b610a7e7fa49807205ce4d355092ef5a8a18f56e8913cf4a201fbe287825b095693c2177533610957565b610abd576040517f08c379a0000000000000000000000000000000000000000000000000000000008152600401610ab490611996565b60405180910390fd5b610ae77f9f2df0fed2c77648de5860a4cc508cd0818c85b8b8a1ab4ceeef8d981c8956a6826106a2565b50565b6000801b81565b600080610afc610c4b565b9050610b09818585610cfa565b600191505092915050565b7f9f2df0fed2c77648de5860a4cc508cd0818c85b8b8a1ab4ceeef8d981c8956a681565b610b4182610682565b610b4a81610dee565b610b548383610ef4565b50505050565b6000600160008473ffffffffffffffffffffffffffffffffffffffff1673ffffffffffffffffffffffffffffffffffffffff16815260200190815260200160002060008373ffffffffffffffffffffffffffffffffffffffff1673ffffffffffffffffffffffffffffffffffffffff16815260200190815260200160002054905092915050565b60007f01ffc9a7000000000000000000000000000000000000000000000000000000007bffffffffffffffffffffffffffffffffffffffffffffffffffffffff1916827bffffffffffffffffffffffffffffffffffffffffffffffffffffffff1916149050919050565b600033905090565b610c608383836001611069565b505050565b6000610c718484610b5a565b90507fffffffffffffffffffffffffffffffffffffffffffffffffffffffffffffffff811015610cf45781811015610ce4578281836040517ffb8f41b2000000000000000000000000000000000000000000000000000000008152600401610cdb93929190611a31565b60405180910390fd5b610cf384848484036000611069565b5b50505050565b600073ffffffffffffffffffffffffffffffffffffffff168373ffffffffffffffffffffffffffffffffffffffff1603610d6c5760006040517f96c6fd1e000000000000000000000000000000000000000000000000000000008152600401610d639190611a68565b60405180910390fd5b600073ffffffffffffffffffffffffffffffffffffffff168273ffffffffffffffffffffffffffffffffffffffff1603610dde5760006040517fec442f05000000000000000000000000000000000000000000000000000000008152600401610dd59190611a68565b60405180910390fd5b610de9838383611240565b505050565b610dff81610dfa610c4b565b611465565b50565b6000610e0e8383610957565b610ee95760016005600085815260200190815260200160002060000160008473ffffffffffffffffffffffffffffffffffffffff1673ffffffffffffffffffffffffffffffffffffffff16815260200190815260200160002060006101000a81548160ff021916908315150217905550610e86610c4b565b73ffffffffffffffffffffffffffffffffffffffff168273ffffffffffffffffffffffffffffffffffffffff16847f2f8788117e7eff1d82e926ec794901d17c78024a50270940304540a733656f0d60405160405180910390a460019050610eee565b600090505b92915050565b6000610f008383610957565b15610fdc5760006005600085815260200190815260200160002060000160008473ffffffffffffffffffffffffffffffffffffffff1673ffffffffffffffffffffffffffffffffffffffff16815260200190815260200160002060006101000a81548160ff021916908315150217905550610f79610c4b565b73ffffffffffffffffffffffffffffffffffffffff168273ffffffffffffffffffffffffffffffffffffffff16847ff6391f5c32d9c69d2a47ea670b442974b53935d1edc7fd64eb21e047a839171b60405160405180910390a460019050610fe1565b600090505b92915050565b600073ffffffffffffffffffffffffffffffffffffffff168273ffffffffffffffffffffffffffffffffffffffff16036110595760006040517fec442f050000000000000000000000000000000000000000000000000000000081526004016110509190611a68565b60405180910390fd5b61106560008383611240565b5050565b600073ffffffffffffffffffffffffffffffffffffffff168473ffffffffffffffffffffffffffffffffffffffff16036110db5760006040517fe602df050000000000000000000000000000000000000000000000000000000081526004016110d29190611a68565b60405180910390fd5b600073ffffffffffffffffffffffffffffffffffffffff168373ffffffffffffffffffffffffffffffffffffffff160361114d5760006040517f94280d620000000000000000000000000000000000000000000000000000000081526004016111449190611a68565b60405180910390fd5b81600160008673ffffffffffffffffffffffffffffffffffffffff1673ffffffffffffffffffffffffffffffffffffffff16815260200190815260200160002060008573ffffffffffffffffffffffffffffffffffffffff1673ffffffffffffffffffffffffffffffffffffffff16815260200190815260200160002081905550801561123a578273ffffffffffffffffffffffffffffffffffffffff168473ffffffffffffffffffffffffffffffffffffffff167f8c5be1e5ebec7d5bd14f71427d1e84f3dd0314c0f7b2291e5b200ac8c7c3b925846040516112319190611738565b60405180910390a35b50505050565b600073ffffffffffffffffffffffffffffffffffffffff168373ffffffffffffffffffffffffffffffffffffffff16036112925780600260008282546112869190611ab2565b92505081905550611365565b60008060008573ffffffffffffffffffffffffffffffffffffffff1673ffffffffffffffffffffffffffffffffffffffff1681526020019081526020016000205490508181101561131e578381836040517fe450d38c00000000000000000000000000000000000000000000000000000000815260040161131593929190611a31565b60405180910390fd5b8181036000808673ffffffffffffffffffffffffffffffffffffffff1673ffffffffffffffffffffffffffffffffffffffff16815260200190815260200160002081905550505b600073ffffffffffffffffffffffffffffffffffffffff168273ffffffffffffffffffffffffffffffffffffffff16036113ae57806002600082825403925050819055506113fb565b806000808473ffffffffffffffffffffffffffffffffffffffff1673ffffffffffffffffffffffffffffffffffffffff168152602001908152602001600020600082825401925050819055505b8173ffffffffffffffffffffffffffffffffffffffff168373ffffffffffffffffffffffffffffffffffffffff167fddf252ad1be2c89b69c2b068fc378daa952ba7f163c4a11628f55a4df523b3ef836040516114589190611738565b60405180910390a3505050565b61146f8282610957565b6114b25780826040517fe2517d3f0000000000000000000000000000000000000000000000000000000081526004016114a9929190611ae6565b60405180910390fd5b5050565b600080fd5b60007fffffffff0000000000000000000000000000000000000000000000000000000082169050919050565b6114f0816114bb565b81146114fb57600080fd5b50565b60008135905061150d816114e7565b92915050565b600060208284031215611529576115286114b6565b5b6000611537848285016114fe565b91505092915050565b60008115159050919050565b61155581611540565b82525050565b6000602082019050611570600083018461154c565b92915050565b600081519050919050565b600082825260208201905092915050565b60005b838110156115b0578082015181840152602081019050611595565b60008484015250505050565b6000601f19601f8301169050919050565b60006115d882611576565b6115e28185611581565b93506115f2818560208601611592565b6115fb816115bc565b840191505092915050565b6000602082019050818103600083015261162081846115cd565b905092915050565b600073ffffffffffffffffffffffffffffffffffffffff82169050919050565b600061165382611628565b9050919050565b61166381611648565b811461166e57600080fd5b50565b6000813590506116808161165a565b92915050565b6000819050919050565b61169981611686565b81146116a457600080fd5b50565b6000813590506116b681611690565b92915050565b600080604083850312156116d3576116d26114b6565b5b60006116e185828601611671565b92505060206116f2858286016116a7565b9150509250929050565b600060208284031215611712576117116114b6565b5b600061172084828501611671565b91505092915050565b61173281611686565b82525050565b600060208201905061174d6000830184611729565b92915050565b60008060006060848603121561176c5761176b6114b6565b5b600061177a86828701611671565b935050602061178b86828701611671565b925050604061179c868287016116a7565b9150509250925092565b6000819050919050565b6117b9816117a6565b81146117c457600080fd5b50565b6000813590506117d6816117b0565b92915050565b6000602082840312156117f2576117f16114b6565b5b6000611800848285016117c7565b91505092915050565b611812816117a6565b82525050565b600060208201905061182d6000830184611809565b92915050565b6000806040838503121561184a576118496114b6565b5b6000611858858286016117c7565b925050602061186985828601611671565b9150509250929050565b600060ff82169050919050565b61188981611873565b82525050565b60006020820190506118a46000830184611880565b92915050565b600080604083850312156118c1576118c06114b6565b5b60006118cf85828601611671565b92505060206118e085828601611671565b9150509250929050565b7f4e487b7100000000000000000000000000000000000000000000000000000000600052602260045260246000fd5b6000600282049050600182168061193157607f821691505b602082108103611944576119436118ea565b5b50919050565b7f514244546f6b656e3a2063616c6c6572206973206e6f7420616e2061646d696e600082015250565b6000611980602083611581565b915061198b8261194a565b602082019050919050565b600060208201905081810360008301526119af81611973565b9050919050565b7f514244546f6b656e3a2063616c6c6572206973206e6f742061206d696e746572600082015250565b60006119ec602083611581565b91506119f7826119b6565b602082019050919050565b60006020820190508181036000830152611a1b816119df565b9050919050565b611a2b81611648565b82525050565b6000606082019050611a466000830186611a22565b611a536020830185611729565b611a606040830184611729565b949350505050565b6000602082019050611a7d6000830184611a22565b92915050565b7f4e487b7100000000000000000000000000000000000000000000000000000000600052601160045260246000fd5b6000611abd82611686565b9150611ac883611686565b9250828201905080821115611ae057611adf611a83565b5b92915050565b6000604082019050611afb6000830185611a22565b611b086020830184611809565b939250505056fea26469706673582212208c858399fa0d938cc78905a264eafd5bf67b7f4cefbb5f7b0632baba2920a5a864736f6c634300081c0033",
  "linkReferences": {},
  "deployedLinkReferences": {}
}