{
  "_format": "hh-sol-artifact-1",
  "contractName": "ReserveConfiguration",
  "sourceName": "contracts/ReserveConfiguration.sol",
  "abi": [
    {
      "inputs": [],
      "stateMutability": "nonpayable",
      "type": "constructor"
    },
    {
      "inputs": [
        {
          "internalType": "address",
          "name": "owner",
          "type": "address"
        }
      ],
      "name": "OwnableInvalidOwner",
      "type": "error"
    },
    {
      "inputs": [
        {
          "internalType": "address",
          "name": "account",
          "type": "address"
        }
      ],
      "name": "OwnableUnauthorizedAccount",
      "type": "error"
    },
    {
      "anonymous": false,
      "inputs": [
        {
          "indexed": true,
          "internalType": "address",
          "name": "asset",
          "type": "address"
        },
        {
          "indexed": false,
          "internalType": "uint256",
          "name": "ltv",
          "type": "uint256"
        },
        {
          "indexed": false,
          "internalType": "uint256",
          "name": "liquidationThreshold",
          "type": "uint256"
        },
        {
          "indexed": false,
          "internalType": "uint256",
          "name": "liquidationBonus",
          "type": "uint256"
        },
        {
          "indexed": false,
          "internalType": "bool",
          "name": "isActive",
          "type": "bool"
        }
      ],
      "name": "ConfigUpdated",
      "type": "event"
    },
    {
      "anonymous": false,
      "inputs": [
        {
          "indexed": true,
          "internalType": "address",
          "name": "previousOwner",
          "type": "address"
        },
        {
          "indexed": true,
          "internalType": "address",
          "name": "newOwner",
          "type": "address"
        }
      ],
      "name": "OwnershipTransferred",
      "type": "event"
    },
    {
      "inputs": [
        {
          "internalType": "address",
          "name": "asset",
          "type": "address"
        }
      ],
      "name": "getConfig",
      "outputs": [
        {
          "components": [
            {
              "internalType": "uint256",
              "name": "ltv",
              "type": "uint256"
            },
            {
              "internalType": "uint256",
              "name": "liquidationThreshold",
              "type": "uint256"
            },
            {
              "internalType": "uint256",
              "name": "liquidationBonus",
              "type": "uint256"
            },
            {
              "internalType": "bool",
              "name": "isActive",
              "type": "bool"
            }
          ],
          "internalType": "struct ReserveConfiguration.Config",
          "name": "",
          "type": "tuple"
        }
      ],
      "stateMutability": "view",
      "type": "function"
    },
    {
      "inputs": [
        {
          "internalType": "address",
          "name": "asset",
          "type": "address"
        }
      ],
      "name": "isAssetActive",
      "outputs": [
        {
          "internalType": "bool",
          "name": "",
          "type": "bool"
        }
      ],
      "stateMutability": "view",
      "type": "function"
    },
    {
      "inputs": [],
      "name": "owner",
      "outputs": [
        {
          "internalType": "address",
          "name": "",
          "type": "address"
        }
      ],
      "stateMutability": "view",
      "type": "function"
    },
    {
      "inputs": [],
      "name": "renounceOwnership",
      "outputs": [],
      "stateMutability": "nonpayable",
      "type": "function"
    },
    {
      "inputs": [
        {
          "internalType": "address",
          "name": "asset",
          "type": "address"
        },
        {
          "internalType": "uint256",
          "name": "ltv",
          "type": "uint256"
        },
        {
          "internalType": "uint256",
          "name": "liquidationThreshold",
          "type": "uint256"
        },
        {
          "internalType": "uint256",
          "name": "liquidationBonus",
          "type": "uint256"
        },
        {
          "internalType": "bool",
          "name": "isActive",
          "type": "bool"
        }
      ],
      "name": "setConfig",
      "outputs": [],
      "stateMutability": "nonpayable",
      "type": "function"
    },
    {
      "inputs": [
        {
          "internalType": "address",
          "name": "newOwner",
          "type": "address"
        }
      ],
      "name": "transferOwnership",
      "outputs": [],
      "stateMutability": "nonpayable",
      "type": "function"
    }
  ],
  "bytecode": "0x608060405234801561001057600080fd5b5033600073ffffffffffffffffffffffffffffffffffffffff168173ffffffffffffffffffffffffffffffffffffffff16036100845760006040517f1e4fbdf700000000000000000000000000000000000000000000000000000000815260040161007b919061019e565b60405180910390fd5b6100938161009960201b60201c565b506101b9565b60008060009054906101000a900473ffffffffffffffffffffffffffffffffffffffff169050816000806101000a81548173ffffffffffffffffffffffffffffffffffffffff021916908373ffffffffffffffffffffffffffffffffffffffff1602179055508173ffffffffffffffffffffffffffffffffffffffff168173ffffffffffffffffffffffffffffffffffffffff167f8be0079c531659141344cd1fd0a4f28419497f9722a3daafe3b4186f6b6457e060405160405180910390a35050565b600073ffffffffffffffffffffffffffffffffffffffff82169050919050565b60006101888261015d565b9050919050565b6101988161017d565b82525050565b60006020820190506101b3600083018461018f565b92915050565b610b4e806101c86000396000f3fe608060405234801561001057600080fd5b50600436106100625760003560e01c80631bd8e83414610067578063715018a6146100835780638da5cb5b1461008d578063a2fa0157146100ab578063e48a5f7b146100db578063f2fde38b1461010b575b600080fd5b610081600480360381019061007c9190610779565b610127565b005b61008b61037d565b005b610095610391565b6040516100a29190610803565b60405180910390f35b6100c560048036038101906100c0919061081e565b6103ba565b6040516100d2919061085a565b60405180910390f35b6100f560048036038101906100f0919061081e565b610413565b60405161010291906108e8565b60405180910390f35b6101256004803603810190610120919061081e565b6104a5565b005b61012f61052b565b600073ffffffffffffffffffffffffffffffffffffffff168573ffffffffffffffffffffffffffffffffffffffff160361019e576040517f08c379a000000000000000000000000000000000000000000000000000000000815260040161019590610960565b60405180910390fd5b670de0b6b3a76400008411156101e9576040517f08c379a00000000000000000000000000000000000000000000000000000000081526004016101e0906109cc565b60405180910390fd5b670de0b6b3a7640000831115610234576040517f08c379a000000000000000000000000000000000000000000000000000000000815260040161022b90610a38565b60405180910390fd5b670de0b6b3a764000082101561027f576040517f08c379a000000000000000000000000000000000000000000000000000000000815260040161027690610aa4565b60405180910390fd5b6040518060800160405280858152602001848152602001838152602001821515815250600160008773ffffffffffffffffffffffffffffffffffffffff1673ffffffffffffffffffffffffffffffffffffffff16815260200190815260200160002060008201518160000155602082015181600101556040820151816002015560608201518160030160006101000a81548160ff0219169083151502179055509050508473ffffffffffffffffffffffffffffffffffffffff167fc31a2d94c48ec6c1d8a87334d1212418af4bc7a9805d35d2d721957c06a6efea8585858560405161036e9493929190610ad3565b60405180910390a25050505050565b61038561052b565b61038f60006105b2565b565b60008060009054906101000a900473ffffffffffffffffffffffffffffffffffffffff16905090565b6000600160008373ffffffffffffffffffffffffffffffffffffffff1673ffffffffffffffffffffffffffffffffffffffff16815260200190815260200160002060030160009054906101000a900460ff169050919050565b61041b61067e565b600160008373ffffffffffffffffffffffffffffffffffffffff1673ffffffffffffffffffffffffffffffffffffffff1681526020019081526020016000206040518060800160405290816000820154815260200160018201548152602001600282015481526020016003820160009054906101000a900460ff1615151515815250509050919050565b6104ad61052b565b600073ffffffffffffffffffffffffffffffffffffffff168173ffffffffffffffffffffffffffffffffffffffff160361051f5760006040517f1e4fbdf70000000000000000000000000000000000000000000000000000000081526004016105169190610803565b60405180910390fd5b610528816105b2565b50565b610533610676565b73ffffffffffffffffffffffffffffffffffffffff16610551610391565b73ffffffffffffffffffffffffffffffffffffffff16146105b057610574610676565b6040517f118cdaa70000000000000000000000000000000000000000000000000000000081526004016105a79190610803565b60405180910390fd5b565b60008060009054906101000a900473ffffffffffffffffffffffffffffffffffffffff169050816000806101000a81548173ffffffffffffffffffffffffffffffffffffffff021916908373ffffffffffffffffffffffffffffffffffffffff1602179055508173ffffffffffffffffffffffffffffffffffffffff168173ffffffffffffffffffffffffffffffffffffffff167f8be0079c531659141344cd1fd0a4f28419497f9722a3daafe3b4186f6b6457e060405160405180910390a35050565b600033905090565b60405180608001604052806000815260200160008152602001600081526020016000151581525090565b600080fd5b600073ffffffffffffffffffffffffffffffffffffffff82169050919050565b60006106d8826106ad565b9050919050565b6106e8816106cd565b81146106f357600080fd5b50565b600081359050610705816106df565b92915050565b6000819050919050565b61071e8161070b565b811461072957600080fd5b50565b60008135905061073b81610715565b92915050565b60008115159050919050565b61075681610741565b811461076157600080fd5b50565b6000813590506107738161074d565b92915050565b600080600080600060a08688031215610795576107946106a8565b5b60006107a3888289016106f6565b95505060206107b48882890161072c565b94505060406107c58882890161072c565b93505060606107d68882890161072c565b92505060806107e788828901610764565b9150509295509295909350565b6107fd816106cd565b82525050565b600060208201905061081860008301846107f4565b92915050565b600060208284031215610834576108336106a8565b5b6000610842848285016106f6565b91505092915050565b61085481610741565b82525050565b600060208201905061086f600083018461084b565b92915050565b61087e8161070b565b82525050565b61088d81610741565b82525050565b6080820160008201516108a96000850182610875565b5060208201516108bc6020850182610875565b5060408201516108cf6040850182610875565b5060608201516108e26060850182610884565b50505050565b60006080820190506108fd6000830184610893565b92915050565b600082825260208201905092915050565b7f496e76616c696420617373657420616464726573730000000000000000000000600082015250565b600061094a601583610903565b915061095582610914565b602082019050919050565b600060208201905081810360008301526109798161093d565b9050919050565b7f4c5456203e203130302500000000000000000000000000000000000000000000600082015250565b60006109b6600a83610903565b91506109c182610980565b602082019050919050565b600060208201905081810360008301526109e5816109a9565b9050919050565b7f4c69717569646174696f6e207468726573686f6c64203e203130302500000000600082015250565b6000610a22601c83610903565b9150610a2d826109ec565b602082019050919050565b60006020820190508181036000830152610a5181610a15565b9050919050565b7f426f6e7573206d757374206265203e3d20313030250000000000000000000000600082015250565b6000610a8e601583610903565b9150610a9982610a58565b602082019050919050565b60006020820190508181036000830152610abd81610a81565b9050919050565b610acd8161070b565b82525050565b6000608082019050610ae86000830187610ac4565b610af56020830186610ac4565b610b026040830185610ac4565b610b0f606083018461084b565b9594505050505056fea2646970667358221220ada7f4c6909dfb47c9c70ed7bbbe862b23f7994162d1c4a007035c6390ada5ad64736f6c634300081c0033",
  "linkReferences": {},
  "deployedLinkReferences": {}
}